:1000000000400020C50600000507000007070000AB
:1000100000000000000000000000000000000000E0
:1000200000000000000000000000000009070000C0
:1000300000000000000000000B0700000D0700009A
:100040000F0700000F0700000F0700000F07000058
:100050000F070000000000000F0700000F0700005E
:100060000F0700000F0700000F0700000F07000038
:100070000F0700000F0700000F0700000F07000028
:100080000F0700000F0700000F0700000F07000018
:100090000F0700000F0700000F0700000F07000008
:1000A0000F0700000F070000000000000000000024
:1000B0000000000000000000000000000000000040
:1000C00008B5054B054803331B1A062B03D9044B0F
:1000D000002B00D0984708BDB4080020B4080020C9
:1000E000000000000648074908B5091A8910CB0F1F
:1000F0005918491003D0044B002B00D0984708BD75
:10010000B4080020B40800200000000010B5074C1F
:100110002378002B09D1FFF7D3FF054B002B02D02A
:10012000044800E000BF0123237010BDB408002084
:100130000000000078C7000008B5094B002B03D071
:100140000848094900E000BF08480368002B02D1B5
:10015000FFF7C8FF08BD064B002BF9D09847F7E71B
:100160000000000078C70000B8080020B008002098
:1001700000000000144B002B00D1124B9D46402282
:1001800092029A1A924600218B460F461148124A53
:10019000121A00F025FB0D4B002B00D098470C4B9A
:1001A000002B00D098470020002104000D000B48D0
:1001B00000F0AEFA00F0DEFA2000290000F04EF860
:1001C00000F0AEFA0000080000400020000000002F
:1001D00000000000B40800200C09002041070000C6
:1001E00080B586B000AFF860B9607A60BB687B61AB
:1001F00000233B610AE07B691B78181C00F0CAF8F9
:100200007B6901337B613B6901333B613A697B6800
:100210009A42F0D37B68181CBD4606B080BDC0462C
:1002200090B587B000AFF860B9607A60BB687B6159
:100230001323FC1800F0D2F8031C23701323FB18BF
:100240001B78002BF4D07B691322BA1812781A702D
:100250000123181CBD4607B090BDC04680B584B0D0
:1002600000AF00F05BF800F0D3F800F035F9254B53
:10027000181C122100F0A2FA234B181C00F09EFA61
:10028000224A3B1D101C191C00F0F0FA7B68204A22
:10029000101C191C00F092FA1E4B181C00F08EFA6C
:1002A0000023FB6000F0C6F8031E06D000F0E6F85D
:1002B0000123FB60412000F06DF800F0CDF8031E33
:1002C00006D000F0FDF80023FB60422000F062F849
:1002D00000F084F8031E0BD0FB68002B04D000F064
:1002E000EFF80023FB6003E000F0C8F80123FB6097
:1002F000094BBB60C046BB685A1EBA60002BFAD1DE
:10030000D0E7C04678BA000098BA0000ACBA000046
:10031000B0BA0000C4BA00001027000080B500AFDA
:10032000A023DA05EC23DB000121D150A023DB055B
:10033000124A00219950124A124B1821D150104AEA
:10034000114B1921D1500E4A104B1149D1500C4973
:10035000A223DB0001225242CA500949A123DB003B
:1003600001225242CA50064AA023DB000421D15088
:10037000034B01221A60BD4680BDC04664070000E1
:10038000002000400C0500001405000024050000BA
:100390000050270080B582B000AF021CFB1D1A7010
:1003A0000C4B01229A600B49FB1D1B780A4A8B50AB
:1003B000C046084A8E235B00D358002BF9D0054A6B
:1003C0008E235B000021D150024B0122DA60BD4632
:1003D00002B080BD002000401C05000080B500AFC9
:1003E0000A4A84235B00D358002B0AD0074A84238F
:1003F0005B000021D150054AA323DB00D358DBB2B8
:1004000000E00023181CBD4680BDC046002000400F
:1004100080B500AFA023DB05054A00219950A02339
:10042000DA05ED23DB000021D150BD4680BDC0467A
:100430004407000080B500AFA023DA05A223DB004B
:10044000D25880239B02134001D1012300E00023F6
:10045000181CBD4680BDC04680B500AFA023DA059C
:10046000A223DB00D2588023DB04134001D10123F7
:1004700000E00023181CBD4680BDC04680B582B098
:1004800000AFA023DA05A123DB00E0210902D1504F
:1004900004237B600BE0A023DB0501217A689140F7
:1004A0000A1C111C054A99507B6801337B607B68EC
:1004B0000C2BF0DDBD4602B080BDC0460C0500002F
:1004C00080B500AFA023DB050249E02212025A509A
:1004D000BD4680BD0C05000080B582B000AF04238E
:1004E0007B6015E0A023DA0501217B6899400B1C95
:1004F000191CA323DB00D150A023DB0501217A685E
:1005000091400A1C111C054A99507B6801337B609D
:100510007B680F2BE6DDBD4602B080BD0C050000F8
:1005200080B500AF00F034F8031E06D0124B134A1A
:100530001A60134B802212021A6000F069F8031E41
:1005400005D08023DA05C123DB000121D15000F062
:1005500085F8031E0ED00B4B1B68012B07D0094BEF
:10056000094A1A60C046074B1B68012BFBD1074B99
:10057000C0221A60BD4680BD04050040DFFF07C0F1
:10058000186C004000EC06407593000014EC064027
:1005900080B500AF1A4B1B68FF221340012B2AD1F4
:1005A000184B1B680F22134025D1174B1B68F022F4
:1005B000134006D1154B1B68F022134001D10123D3
:1005C0001AE0114B1B68F0221340102B06D10F4B81
:1005D0001B68F022134001D101230DE00A4B1B6878
:1005E000F0221340302B06D1084B1B68F022134039
:1005F00001D1012300E00023181CBD4680BDC04688
:10060000E00F00F0E40F00F0E80F00F0EC0F00F056
:1006100080B500AF0D4B1B68FF221340012B11D199
:100620000B4B1B680F2213400CD10A4B1B68F022A6
:100630001340402B06D1084B1B68F022134001D118
:10064000012300E00023181CBD4680BDE00F00F030
:10065000E40F00F0E80F00F0EC0F00F080B500AF01
:10066000144B1B68FF221340012B1ED1124B1B6839
:100670000F22134019D1114B1B68F0221340A02BFD
:1006800006D10F4B1B68F022134001D101230DE06E
:100690000A4B1B68F0221340D02B06D1084B1B6875
:1006A000F022134001D1012300E00023181CBD46B5
:1006B00080BDC046E00F00F0E40F00F0E80F00F04E
:1006C000EC0F00F003210A4802680A43026009485F
:1006D00002680A4302600849084A094B9B1A03DD75
:1006E000043BC858D050FBDCFFF71AFFFFF742FD70
:1006F0002405004054050040ACC700000000002065
:10070000B4080020FEE7FEE7FEE7FEE7FEE7FEE7AF
:1007100008B5011C00220020002301F0CBFE08BD1B
:1007200010B50021041C01F03BFF044B1868C36B9B
:10073000002B00D09847201C0BF090F9CCBA000099
:1007400038B5094B094CE41AA41009D0084AA51879
:10075000AD00ED182B68013C9847043D002CF9D101
:100760000BF084F938BDC046AC080020B00800206A
:10077000FFFFFF3F70B50D4E0D4D0024AD1BAD10BA
:1007800005D0A300F35801349847A542F9D10BF0E6
:1007900067F9084E084D0024AD1BAD1005D0A3002D
:1007A000F35801349847A542F9D170BDA408002040
:1007B000A4080020A4080020AC0800200FB400B555
:1007C000064983B004AB086804CB8168019300F04C
:1007D0009DF803B008BC04B01847C04628040020A8
:1007E00070B583073FD0541E002A3BD0CEB2031C05
:1007F000032503E0621E002C34D0141C01335A1E62
:1008000016702B42F6D1032C24D9FF250D402A0265
:1008100015432A0415430F2C11D9261C103E360906
:10082000013636011A1C9B19156055609560D5601C
:1008300010329342F8D10F221440032C0AD9261FFC
:10084000B6080136B6001A1C9B1920C29342FCD18F
:1008500003221440002C05D0C9B21C1919700133B1
:10086000A342FBD170BD141C031CCCE70FB400B530
:10087000064983B004AB086804CB4168019301F0DA
:100880009DFD03B008BC04B01847C04628040020F2
:10089000F0B557464E4645464B6EE0B480460F1CB9
:1008A00091469B042ED513689A469368002B27D057
:1008B000524652680025960852461468002E04DC01
:1008C00015E001350434AE420FD0404621683A1C91
:1008D00002F0A6F8431CF4D14A460023936053600B
:1008E0001CBC90469946A246F0BD4B469B684A46C2
:1008F000B6009B1B936008229446E244002BD7D19C
:100900000020E9E702F07AFAE6E7C046F0B55F4674
:10091000444656464D46F0B4B5B008900391934610
:100920001C1C0E93002804D0836B0093002B00D175
:100930009FE08021039B89019A8993B20B4209D1E0
:100940000A4303994B6E8A8100930098CE4B034073
:100950004B6693B21A076BD5039A12690092002A6C
:1009600066D01A2213400A2B6ED0049C059D24AB3E
:1009700098461793002346461993189311930B93A7
:100980005B461B78002B01D100F0BAFC252B01D16E
:1009900000F0B6FC5B4601E0252A3ED001331A7810
:1009A000002AF9D15A4699469F1A002F11D05B466A
:1009B0003360199B7760FA18189B199200930133E2
:1009C00018930836072B2CDC0B9B9C46BC446346D3
:1009D0000B934B461B78002B00D16EE34B465F1CFC
:1009E000002314AAD37101225242069200220A92D5
:1009F000009210324B469246303294464032914635
:100A000000213A1C5B78571C1A1C203A582A00D93E
:100A10006CE29E489200825897465A4699469F1A21
:100A2000C3E7002A01D000F088FC18924646CBE7C5
:100A30000898039901F0D6FC002811D11A22039BD3
:100A40009B8913400A2B90D1039B0E229B5E002BA7
:100A50008BDB089803995A46231C00F079FD01E0CE
:100A60000120404235B03CBC90469946A246AB4678
:100A7000F0BD01F06FFF5CE73A1C042300981843B7
:100A800000903B78BFE74A46009B134300933B78B6
:100A90003A1CB8E70022101C303A93469B445A4651
:100AA0008B46011C8B005B185B00013799187B1E7D
:100AB0001B781A1C303A092AF4D90A915946A3E73F
:100AC00014ABD9711023009ABB461A430092009BC5
:100AD0009B0600D4F6E107230E9A07329A430133AE
:100AE0009C46944463460E93536814681D1C002B67
:100AF00001DA00F067FC211C012214ABDF79069BB0
:100B000029430993069B002B03DB8023009898431D
:100B10000090002900D09BE2069B002B00D1ACE3A3
:100B2000012A00D1BBE2022A00D1B5E307234246E5
:100B30009946B4466E07E0084B46E90806430D1C8B
:100B4000311C2340013A30331370341C2943F1D156
:100B50001092009A6646D20700D4D4E3302B00D11D
:100B6000D1E3109B013B1A1C1093302313704346B2
:100B70009B1A0993099B069A0493934200DA049204
:100B80007B1E9F41049B9C46BC4463460493022306
:100B9000009A1A400C9202D0049B023304938423DF
:100BA000009A1A400F9200D0B5E10A9B049A9F1A4E
:100BB000002F00DCAFE1199B102F01DC00F082FC5C
:100BC000334A311C9146102218989246129413957C
:100BD0004E4605E0841C101C0831103F102F11DD1B
:100BE000524610334A60421C0E6019931892072A2D
:100BF000F0DD002B00D081E1103F002001244146B0
:100C0000102FEDDCB1460E1C211C129C139D4A4690
:100C1000FB183260776019931891072900DD55E3BE
:100C20004A1C083694467AE1BB460E991AAA0B680C
:100C300004310E911370002314A9CB710133049376
:100C40000993109200230693A1E71023009ABB4654
:100C50001A430092009B9B0600D4C7E007220E9B1C
:100C600007339343013294461C685D689C44624696
:100C7000211C0E9200222943002314A8C371069B55
:100C8000002709933EE7C046FFDFFFFFD0BA000010
:100C900074BC00001023009ABB461A430092009BCC
:100CA0009B0679D507220E9B073393430132944666
:100CB0001C685D689C446246211C0E9229430122F7
:100CC000DAE73B786C2B00D1D9E35046009A024317
:100CD00000923A1C97E614AAD171D44ABB461192ED
:100CE000009A92066FD507210E9A07328A43013186
:100CF0008C4614685568944461460E91009AD20758
:100D000000D410E3211C02222943B5D0302716A8B5
:100D10004370009B077013430093ADE70E9B1A1DB1
:100D20001B6893460A93002B00DAB0E30E923B78DF
:100D30003A1C68E63B783A1C2B2164E62022009B93
:100D4000134300933B783A1C5DE60E9B14A91A1DD1
:100D50001B68914610931A1C0023BB46CB71002AD6
:100D600000D1B6E3069B002B00DA98E3109F002128
:100D7000381C1A1C02F09AFD002800D1C6E3C31BE0
:100D8000099314ABDF794B460E9300230693F1E6EB
:100D9000009BBB469B0685D4009BDB0603D4009BCF
:100DA0005B0600D560E30E9B1C68043300250E93A0
:100DB0000122211C60E714AAD1719D4ABB46119201
:100DC000009A92068FD4009AD20600D5AFE2009A1C
:100DD000520600D4ABE20E9A0025148804320E921B
:100DE0008CE7009BBB469B0600D537E7009BDB06E4
:100DF00003D4009B5B0600D539E30E9B1C680433CB
:100E000000250E930022211C36E70E9ABB46131CC8
:100E100004330E9302231468009A00251A430092AB
:100E2000302216AB1A7048325A70814B763A1193C1
:100E3000211C21E714ABD971009BBB469B0600D453
:100E4000DDE20E990B9A0B681A60D2175A600B1CE0
:100E500004330E9394E53A1C3B78002900D0D2E588
:100E60002031D0E53B787A1C2A2B00D158E3302082
:100E7000404283469B445846171C0022092811D83B
:100E80008B46111C021C8B005B185B000137D118CC
:100E90007B1E1B781A1C303A092AF4D90A1E5946BF
:100EA00000DAE7E20692AFE56246009B1343009347
:100EB0003B783A1CA7E514ABD971009BBB469B0657
:100EC00000D508E6009BDB0600D4B1E20E9A136859
:100ED00004931C1C0432DB171D1C0E9207E6012331
:100EE00000983A1C184300903B788CE514AABB4646
:100EF000D171002B00D1E0E01AAA9BE60898039973
:100F000017AAFFF7C5FC002800D0DFE01898199B4E
:100F1000441C414661E61899199B4A1C944614AA40
:100F2000D279002A10D014AA0732326001227260EE
:100F30006246013319931892072A00DD85E10122E8
:100F4000914661460836CC440C9A002A0FD016AA66
:100F50003260022272606246023319931892072AA5
:100F600000DD82E10122914661460836CC440F9AA9
:100F7000802A00D120E1069A0998171A002F34DD43
:100F80002C4A9146102F22DD1022301C92460694E6
:100F900007954E4605E08C1C111C0830103F102FA1
:100FA00010DD5246103342604A1C066019931892B5
:100FB000072AF0DD002B3FD1103F012400214046DD
:100FC000102FEEDCB146061CA446069C079D4A463F
:100FD00032606246DB19776019931892072A00DDA8
:100FE0007BE0012291460836CC44109A3260099A7F
:100FF00098186346726019901893072B79DD0028C2
:1010000000D085E1009B18905B0700D570E1049B40
:101010000A9A934200DA25E20B9A94469C4463466E
:101020000B93002346461893AAE4C04644BC000034
:1010300058BC000034BC00000898039917AAFFF7B9
:1010400027FC002842D11899199B4C1C4046A5E763
:10105000012A00D067E5002D01D1092C1FD9331CCE
:1010600046469946201C291C0A22002308F0AEFBA4
:10107000013E30323270201C291C00230A2208F065
:10108000A5FB031C041C0D1C0B43EBD14B46B146C6
:1010900042461E1C4B461093D31A09936AE5231C43
:1010A00027221AA930338B54183214AB9C4643467E
:1010B00062449B1A099310925CE5199B0093002BE4
:1010C00004D00898039917AAFFF7E2FB039B9B89BA
:1010D0005B0600D5C4E40B98C4E4002B00D060E1AB
:1010E00043460998109A58601A60012346461990A1
:1010F0001893331C0833009A52073BD50A9A049977
:10110000571A002F36DD102F00DCF2E1D34A189970
:10111000914610260094019505E08C1C111C0833A3
:10112000103F102F10DDCD4A10301A604A1C5E604F
:1011300019901892072AF0DD002831D1103F0124C0
:1011400000214346102FEEDCA446009C019D4A4638
:1011500084C36346C01919901893072B0ADD002831
:1011600000D154E70898039917AAFFF791FB0028CC
:10117000ACD11998049B0A9A934200DA131C0B9A7B
:1011800094469C4463460B93002800D149E7089895
:10119000039917AAFFF77CFB002800D141E795E7E8
:1011A0000898039917AAFFF773FB00288ED11899A6
:1011B00019984C1C4346B3E70A9A0498171A002F53
:1011C00000DCD8E6102F00DC9CE1A54A301C9146DB
:1011D00010220C940D9592464E4605E08C1C111C75
:1011E0000830103F102F10DD5246103342604A1C69
:1011F000066019931892072AF0DD002B18D1103FD2
:10120000012400214046102FEEDCB146061C201CB4
:101210000C9C0D9D4A46DB1932607760199318903B
:10122000072800DDB5E0421C08369446011CA2E602
:101230000898039917AAFFF72BFB002800D045E771
:101240001899199B4C1C4046CBE7002B00D084E03A
:101250000C9A002A7CD0424616AB136002235360DE
:10126000013B9C46464601337CE6002B00D082E0E1
:10127000012200219446464679E643461093002A0F
:1012800000D077E4009BDB0700D473E430212723F0
:101290001AAAD1543F2208E742460F20B446B94665
:1012A000119F031C2340FB5C2E072109013A0E43CA
:1012B00013702B091D1C331C341C2B43F1D14346E6
:1012C0009B1A66464F461092099353E4002B00D0B8
:1012D000B6E014AAD279002A00D183E0434614AACA
:1012E00007321A60012342469C465360464626E672
:1012F0000A9A04994346571A002F00DD03E786E651
:10130000D946FFF766FB4346109A9B1A099331E4CE
:101310000898039917AAFFF7BBFA002800D0D5E672
:1013200019984346E7E6211C02222943A4E40E9AB9
:101330000025146804320E92E0E40898039917AA75
:10134000FFF7A6FA002800D0C0E64646FFF73CFBB0
:10135000013200219446464609E60898039917AAE7
:10136000FFF796FA002800D0B0E61899199B4A1C9E
:1013700094464646E8E50898039917AAFFF788FAC5
:10138000002800D0A2E61899199B4A1C94464646AC
:10139000EDE5002B00D087E001220021944646466F
:1013A000E9E50898039917AAFFF772FA002800D018
:1013B0008CE601218946189A199B06924A44944664
:1013C000464612E6221C2B1C002554429D412D232B
:1013D000211C14AAD371069B2D27099301222943AE
:1013E000FFF790FB013294460C9A00214646002AF2
:1013F00000D1C0E516AB336002237360B2E5009BF9
:10140000DB060CD4009B5B0609D569460E9B898DD3
:101410001A680433009211800E93FFF7B1FA0E9A06
:101420000B9913681960131C04330E93FFF7A8FA85
:10143000009B0E9A5B0600D449E50021535E48E507
:101440000898039917AAFFF723FA002800D03DE671
:101450001899199B4A1C9446464660E574BC0000E6
:1014600034BC0000131CD7E50E9B1C889DE40E9B2A
:101470001C88C4E4012252420692FFF7C5FA2020DC
:10148000009B7A1C034300937B78FFF7BCFA0A9B0E
:101490003A1C5B420A935B460E93FFF7EEFA1098F4
:1014A00002F044FE09906CE40898039917AAFFF72C
:1014B000EFF9002800D009E61899199B4A1C9446B8
:1014C000464658E5189A1292511C1E4A9146FFF75B
:1014D0009EFB069F062F00D90627FB433A1CDB170D
:1014E0001A404B460E93184B099704921093FFF73E
:1014F000A9FB01218946189A00924A449446114A50
:10150000914624E6114A6046914683E614ABDF79A2
:101510004B460E93069B099300230693FFF72AFB85
:101520000E9B181D1B680693002B03DB7B780E9027
:10153000FFF769FA0E90012040427B780690FFF792
:1015400062FAC04674BC00006CBC000034BC0000F1
:1015500070B5061C02201A4CA5440C1C89898143D5
:1015600068468181616E1991E189C181E169301C10
:101570000791616A09911AA9009104918021C9001B
:1015800002910591002106916946FFF7BFF9051EFA
:1015900005DB301C694601F033F900280CD16B469D
:1015A0009B895B0603D54023A2891343A381281C92
:1015B0008D23DB009D4470BD01256D42EFE7C046E1
:1015C00098FBFFFFF0B55F46564644464D46F0B4E3
:1015D000CE4C0E1CA54407938B898021890183463C
:1015E0000B4205D10B43B381716EC94B0B4073663F
:1015F00000231178099306930893531C0025C54FC7
:1016000011910493002924D03B68581840780007B2
:1016100021D5736808240DE0396832688C46137848
:1016200063445B781C420DD073680132013B013585
:1016300073603260002BEFDC5846311C02F0FCFB7B
:101640000028E9D0049A1178531C119104930029C1
:10165000DAD1089832E025293AD100210291884652
:101660000431894602398C4601398A4652780499F8
:101670000131782A00D9B7E0A74C9000205887465E
:10168000029C831C01D000F04BFE7368002B01DD2F
:1016900000F067FC5846311C02F0CEFB002801D157
:1016A00000F05FFC002C01D100F068FC08980028D5
:1016B00002D0B3895B0601D501204042AD239B00D7
:1016C0009D443CBC90469946A246AB46F0BD049171
:1016D0007368002B01DC00F04CFD049A3368013A7A
:1016E000197812789142B4D172680133013A72606C
:1016F00033600135049AA6E7884B049109930023CF
:10170000069303339A467368002B00DC7FE0029B4C
:101710005B061DD439683268082401E0013232606A
:101720001378CB185B781C4212D073680135013BEB
:101730007360002BF2DC5846311C02F07DFB002860
:10174000B4D1326839681378CB185B781C42ECD17D
:101750005346022B00D15FE200DC16E25346032B16
:1017600000D1B4E2042B00D081E2584601F036FDEE
:1017700003680D9343465A1E00230C935D33FF33D9
:101780009A4206D943465E3BFF3B0C935E23FF33F0
:101790009846F023029ADB001A4300239A460293EC
:1017A0000F930E9305930B9354AB1C1C0A932B1CA5
:1017B0009146251C44469846326811780B1C2B3BF9
:1017C000DBB24E2B00D9C7E155489B00C3589F465A
:1017D0004846029A02430292049A0491049952786C
:1017E0000131782A00D847E79B1803225B780491DF
:1017F0001340012B01D100F074FC484B09930A23DC
:101800000693073B9A467368002B00DD7FE7584636
:10181000311C02F011FB002800D178E746E7049163
:10182000EBE74023029A04911A43002302929A465E
:1018300069E714AB181C02F0CFFB4023029A049016
:101840001A433F3B02929A465DE780230491029A35
:101850009B001A43334B02920993102306930D3BCE
:101860009A4650E704912F4BC8E7022304919A4609
:1018700049E704918823EAE704912A4B0993082356
:101880000693053B9A463EE7029B0491DB0600D592
:10189000D8E6029B5B0701D400F096FC079B1A6810
:1018A0000433029215800793049ACCE6049A527886
:1018B0006C2A01D100F077FC544602980491204331
:1018C0000290D4E60123029A04911A430292D4E7CB
:1018D000029A60467EE7042304919A4613E70123A7
:1018E000029A04911A43029287E7404680004044DE
:1018F000400082183020404280469044049A04916F
:101900005278B4E6029A102064E7C0464CFDFFFF0F
:10191000FFDFFFFF2C04002084BC0000BD5000004E
:1019200068BE000029540000029B5344002B14D1D0
:101930004846B64B184081462970013501239C4624
:101940007368013C013BE0447360002B00DC14E150
:1019500001323260002C00D02EE7059B2C1C45463E
:10196000002B4DD064E24B46DB05DDD58023494694
:101970009943059B8946013305930C9B002BDDD0D1
:10198000013B0C930134D9E7802348460342E4D05D
:1019900098438146D0E75346072BDED108239A4669
:1019A000CAE75346062BD8D107239A46C4E7029BC1
:1019B000002B00D019E1059B002B06D1E0234846FF
:1019C000DB001840984200D1E5E35346012B01D0DB
:1019D000042BC2D153460133DBB29A46ACE75346DF
:1019E000002B00D008E1059B002B00D01EE2E02375
:1019F0004846DB001840984200D1C4E32C1C454601
:101A0000029B013B012B01D800F08DFC5346013BAA
:101A1000062B20D85346022B01D800F097FC032B4D
:101A200019D05346043BDBB29A46DB439846331C3D
:101A3000A0445E46AB4645469846013C2178301CA2
:101A4000424605F061F9AC42F7D15D465346B346D4
:101A50004646013DED1A4B46DB051CD54B465B0562
:101A600001D500F087FC631E197898466B1E9A46D4
:101A700065290AD0452908D05846321C05F044F99A
:101A8000A31E98461978AB1E9A465846321C05F09C
:101A90003BF95546444610234A46134000D0D1E551
:101AA0002370C023DB0013408022D200934200D178
:101AB00083E30E9B002B00D018E358460A990022BE
:101AC00002F07EFB4B4602900391DB0700D5E5E276
:101AD0004B469B0700D49DE302980399079A13682D
:101AE00018605960131D0793089B049A01330893EB
:101AF000A9E55346022B00D02FE703239A461BE7A4
:101B0000A0234846DB0003408020C000834207D06A
:101B10004B46034200D120E7059B002B00D16DE727
:101B200080204B468000034204D1059B0B980F9503
:101B30001B1A0E934846364B1840031CC020400029
:101B40001843002381460593F6E6029B012B00D043
:101B500003E702230293EFE60D9B1B788B4200D034
:101B6000FBE680204B468000034200D1F5E6294881
:101B700003409946059B0B93DEE65846311C02F064
:101B80005BF9002800D1E5E6E7E6012B6FD143467B
:101B9000002B01D1013B9846029BDB0600D44CE1AF
:101BA00014AB00249946326849461378CB5C002B6D
:101BB00015D073680132013B013473603260A04577
:101BC00010D0002BF0DC5846311C02F035F900280B
:101BD00008D1494632681378CB5C002BE9D1002C40
:101BE00000D136E52D19049A2DE5029B022B00D079
:101BF000EBE6032302939FE65346FD20033B03429B
:101C000000D0AAE60433DBB29A4695E67FFEFFFFDA
:101C10007FF8FFFF7FFDFFFF4346002B01D1013B13
:101C20009846029BDB0700D58AE1029BDB0600D4C5
:101C300046E10823002499463968326848461378FB
:101C4000CB185B781842CDD173680132013B013467
:101C500073603260A045C5D0002BEFDC5846311CC4
:101C600002F0EAF80028BDD139683268E6E7434659
:101C7000002B01D101339846029BDB0700D58BE195
:101C8000029BDB0600D451E20024231C4446A846F4
:101C90001D1C0CE03268ED189446E41A634433606E
:101CA0005846311C02F0C8F8002800D037E27368AB
:101CB000A342EFDB2A1C4546A046141C42469B1A51
:101CC000736033684444434433602D198BE74346C3
:101CD0005A1E002305935D33FF339A4206D94346CB
:101CE0005E3BFF3B05935E23FF339846D823029C5F
:101CF0001B011C430023029354AB9A460A93B04B3A
:101D000099462B1C4546A04654469A46326811789F
:101D10000B1C2B3BDBB24D2B21D8AA489B00C35890
:101D20009F46C0234046DB00034080208000834262
:101D300015D14046A44B1840031CA020C0001843F6
:101D400010238046069373682170013B0134736051
:101D5000002B5CDD01323260013D002DD6D14346BF
:101D60005546A246DB0507D50A9B9C4200D9F5E102
:101D70000A9B9A4500D16CE410234246134000D1DF
:101D800077E153460A9A9B1A029A94466344ED18E7
:101D9000049A58E4069B0A2BE1DD40468B4B184021
:101DA0008046D0E7802340460342D8D098438046FF
:101DB000C9E7069B82485B00C35E40460693834B9F
:101DC00018408046BFE743461B05BCD5069B002B49
:101DD00007D1802340469B0018438046F93BFF3BD8
:101DE000069343465B0500D55FE14146784B1940B9
:101DF000059B8846002B02D0013B05930135029BD1
:101E0000013302937368013B7360002BA2DC5846D8
:101E1000311C02F011F800289ED0A0E74846069B2E
:101E20005B00C35E0693082BB7DC98E72C1C454685
:101E30004A46684B1A409146E2E5079BA9461A1D9F
:101E40001B6802929A46181C4346013B534498462D
:101E500014AB1D1C3368011C1A78AA5C002A14D02C
:101E600072684C1C013A72605A1C32601B78037015
:101E7000414500D150E17368002B15DD201C33680B
:101E8000011C1A78AA5C002AEAD14D465346CC1AA6
:101E900001D1FFF7DEFB00230B70089B2D190133E6
:101EA0000893029B07939EE65846311C01F0C4FF3D
:101EB0000028E3D04D46211CA245E7D1FFF7F6FBF1
:101EC000079B41461A1D1B680139181C0292059395
:101ED0001A1C80460B1C9844082344469A46A84680
:101EE00038683168844650460B7863445B78184202
:101EF00000D030E17368551C013B73604B1C3360AC
:101F00000B78A9461370A2420AD07368002B01DD3A
:101F10002A1CE5E75846311C01F08EFF0028F7D057
:101F2000454600234A4613704B46059A9B1AED1806
:101F3000089B049A01330893029B0793FFF783FBE6
:101F400012AB181C082200210593FEF749FC102350
:101F5000029A1A4011AB92469946002A00D1AFE08E
:101F600000243A683368944608221B7863445B78FF
:101F70001A4203D14346002B00D078E15346002B90
:101F800001D0FFF75FFB4B4652461A60089B049A4C
:101F900001330893FFF757FB12AB181C08220021EE
:101FA0000593FEF71DFC1023029A1A4000230292AB
:101FB0009946002A00D17DE00024AA4626E0C046CA
:101FC000DCC00000A4BF0000FFFDFFFF7FF4FFFFA7
:101FD0007FFCFFFFFFFEFFFF029B002B02D14B4661
:101FE000029A1A6001235B429C46029BAA44E04489
:101FF0000024002B03D104339C46029CE144736807
:10200000002B2ADD4346002B00D1F7E001F0E0F879
:10201000A04201D1FFF74AFB8C20336840001A78B8
:102020000EA909180A55013372683360059B013AFD
:10203000651C72605846009349462B1C54AA01F057
:10204000EDFB431C01D1FFF731FB0028C4D02C1C51
:10205000831CC7D17368002BD4DC5846311C01F0B7
:10206000EBFE0028CED05546002C00D1C7E0FFF78C
:102070001DFB5246584613700A99069B0022099C84
:10208000A04743469B0621D5079A13681860131C86
:1020900004330793089B0133089372E6079A136889
:1020A00018605960131D07931EE54046BD4B18404C
:1020B000804648E6079B1A680433914607937BE7FE
:1020C000079B1A6804339146079349E743465B0729
:1020D00000D4B1E0079B1A6804330592108007937F
:1020E000D8E7029A1A430292FFF787FB0F9C00225F
:1020F0000A23611C584602F0E1FF0E9BC21A0EA98A
:102100008C46A94B63449C4201D3A84C6444201CD8
:10211000A74901F09DFFD0E44D46211CB6E62C1ED8
:10212000454601D1FFF7C2FA2D195CE5079B5846D9
:1021300019681C1D00960122434600F07FFC002810
:1021400001D1FFF7B3FA089B4519013308930794AF
:10215000049AFFF778FA45469146E2E601235B428E
:102160009C46E244534658461978321C04F0CCFD94
:10217000FEE55846311C01F05FFE002801D1FFF753
:10218000ACFAFFF793FA48468A4B18400123814680
:102190009A46FFF7D1FB4846864B184001238146FB
:1021A0000293FFF7C9FB6146029A0A43049902921F
:1021B00002310A780491FFF75AFA0B9A059B9B1A91
:1021C0005A42002B9BD178E4029BDB070DD4029B83
:1021D0009B070AD50799EA170B685A601D600B1C0C
:1021E00004330793049AFFF72EFA079A13681D60C9
:1021F000131C04330793049AFFF725FA5546029BF4
:102200005A425341089A94469C446346049A089360
:10221000FFF719FA079B029803991A1D90461C684C
:1022200001F09AFE002861D00298039909F08AF91A
:1022300043462060079357E44346DB0700D523E776
:1022400043469B0700D41FE75B4B099A58460A99FF
:102250009A4200D1A1E00022069B02F0E5FF079A16
:10226000136818605960131C0433079312E700F0D9
:10227000AFFFA04201D1FFF719FA8C20631C029333
:10228000336840001A780EA909180A55726801339C
:10229000013A7260059A336058460092029B4946A3
:1022A00054AA01F0BBFA431C01D1FFF7FFF9002843
:1022B00001D0FFF7E5F94B46186000F077FF0028E2
:1022C0001BD0029C002C00D158E6A8465D468C220B
:1022D0000EAB5200013C9B18195D281C321C04F007
:1022E00013FD002CF3D1AB46454647E601F0ACFEAA
:1022F000434620600793FFF7F7FB029B00249C46B0
:1023000001235B4265449C465346E044002B01D0C8
:10231000FFF7BBF904339C465446E144FFF7B5F997
:102320004B461868C9E70A9A251E954201D8FFF75F
:1023300090F95C46013D2978201C321C04F0E4FC35
:102340000A9B9D42F6D10898FFF7B8F90A9A231C18
:10235000251C5C46934201D8FFF77BF9013D2978A3
:10236000201C321C04F0D0FC0A9B9D42F6D1089838
:10237000FFF7A4F90A9A251E954201D8FFF769F9DB
:102380005C46013D2978201C321C04F0BDFC0A9BF0
:102390009D42F6D10898FFF791F90022069B03F0C1
:1023A00001F95CE77FFAFFFF6B0200006A020000A0
:1023B00000C100007FF8FFFF29540000F8B5041C9D
:1023C0000F1C161C1D1C002804D0836B002B01D190
:1023D00000F0C0FA391C321C2B1C201CFFF7F2F84D
:1023E000F8BDC04638B5324B051C18680C1C0028D7
:1023F00002D0836B002B3BD0A08983B21A070DD586
:102400002169002916D0DA0722D50023A360636969
:1024100000205B42A361002922D038BDDA063ED5F8
:102420005B0728D421690822031C1343A3819BB2B4
:102430000029E8D1A022802092001A408000824228
:10244000E1D0211C281C00F0CDFEA3892169DAE728
:1024500000229B0700D46269A26000200029DCD121
:10246000A3891A06D9D540221343A3810138D4E7A2
:1024700000F070FAC0E7216B002909D0231C40331B
:10248000994203D0281C00F0E1FBA08900232363BC
:10249000242398430023216963602160C3E7092353
:1024A0002B60402303430120A3814042B5E7C0468F
:1024B00028040020F8B544465F4656464D469B46E4
:1024C0002F4BF0B41C68A4235B00051CE0580E1CC5
:1024D000904600284BD043681F2B0DDC5C1C002D60
:1024E00021D102339B0044601E5000203CBC90462A
:1024F0009946A246AB46F8BD224B002B3CD0C820E3
:10250000400000E000BF002836D0A4220023520083
:10251000A15843600160A050403283500432835080
:102520000124002DDDD09A00914681444246882145
:102530004F467A50C4225200904680444246873922
:10254000994012688A460A439446424661461160A1
:10255000842249465F4652008F50022DC1D1021C91
:1025600055468D32FF3211680D431560B9E7201CC6
:102570004D30FF30E050AEE701204042B6E7C046A4
:10258000CCBA00000000000008B5034B002B02D0BD
:102590000248FEF7BDF808BD00000000410700003A
:1025A000F0B556465F464D464446F0B40E1C3C4BD3
:1025B00087B01B68019003934933FF330493A4222F
:1025C000039B52009F58002F4CD0049B9846002339
:1025D0009B46C4235B009C46BC4463460293C623CF
:1025E0005B009A467C68BA44A5007D19013C08D579
:1025F00026E06B1DFF331B68B34204D0043D013C51
:102600001ED3002EF5D17B686A68013BA3423AD005
:102610005B466B60002AF1D07B68029999460123E2
:10262000A34009680591194223D190477B684B4527
:10263000C5D143461B68BB42C1D1043D013CE0D239
:10264000184B002B0ED07B68002B23D13B68002B4E
:1026500024D04246381C136000E000BF43461F6888
:10266000002FB6D107B03CBC90469946A246AB4677
:10267000F0BD51460968194207D12B1C84331968F3
:1026800001989047D2E77C60C4E72B1C843318681C
:102690009047CBE73B68B8461F1CE1E70023FAE709
:1026A000CCBA000000000000F0B5474680B48B892A
:1026B00080469AB20C1C11073DD4802212011343AC
:1026C0006268A381002A62DDA56A002D2FD04246F0
:1026D0004146166800229BB20A60DA045BD5226D7F
:1026E0005B0706D56368D21A236B002B01D0E36B1E
:1026F000D21A00234046E169A847431C56D0A2895C
:102700003E4B1340002262602269A3812260DB04F9
:102710003BD44346216B1E60002908D0231C403364
:10272000994202D0404600F091FA00232363002032
:1027300004BC9046F0BD2669002EF8D023682660C0
:102740009D1B0023920700D16369A360002D04DC68
:10275000EDE736182D1A002DE9DD4046E169321CFF
:102760002B1C676AB8470028F3DC40230120A289AC
:1027700040421343A381DBE7A189204A63602369B8
:102780000A40A2812360D304C3D52065C1E7E26B70
:10279000002A99DCCBE700224046E1690123A847E3
:1027A000021C431C18D0A389A56A99E743461B68FD
:1027B000002BE1D01D2B06D0162B04D04023A2897C
:1027C0001343A381B4E7A2890C4B1340A3810023D8
:1027D0006360236923609CE743461B68002BE2D0BB
:1027E0001D2B06D0162B04D04023A1890B43A381B7
:1027F0009EE7434600201E609AE7C046FFF7FFFFB2
:1028000038B5041C0D1C002802D0836B002B09D0A6
:102810000C22AB5E0020002B03D0201C291CFFF7EC
:1028200043FF38BD00F096F8F2E7C04608B5011E38
:1028300004D0054B1868FFF7E3FF08BD034B0449BC
:10284000186800F08BFCF8E728040020CCBA0000E0
:102850000128000008B5024900F080FC08BDC04610
:1028600069800000F8B55F4656464D464446344BF5
:10287000F0B4C363B823002403229B00C450043384
:102880004568C2500833C218043BC250061C0423DA
:10289000281C2C606C60AC60AB816C66EC812C6198
:1028A0006C61AC61002108225C30FDF799FF254B7B
:1028B000254F9A462B62254BEF6299466B62244B5B
:1028C000ED61AB62B56898460923281CAB81083BD3
:1028D0002C606C60AC606C66EB812C616C61AC61EF
:1028E000002108225C309B46FDF77AFF53462B629D
:1028F0004B466B624346EF62AB62ED61F5681223B3
:10290000281CAB81103BEB812C606C60AC606C666A
:102910002C616C61AC61002108225C30FDF760FF26
:1029200053462B624B466B624346AB625B46EF629B
:10293000ED61B3633CBC90469946A246AB46F8BDF8
:10294000552800009540000021410000BD400000D6
:10295000F540000008B5836B002B01D1FFF782FF23
:1029600008BDC0467047C0467047C046F0B54F46E8
:102970004646C0B485B081468846141C00F028FC49
:1029800001283FD0231C03AF4846391C42465C3324
:1029900004F084FA061C431C1ED000283ED039786F
:1029A000002508E02368197023680133236001358E
:1029B000AE4233D9795DA368013BA360002BF1DA05
:1029C000A269934211DB2368197023681A780A2AD6
:1029D000EBD148460A2109E04023A2891343A38191
:1029E00005B00CBC90469946F0BD4846221C04F048
:1029F000F9F9013043424341DBB2002BD7D001202B
:102A00004042EDE74346013BFE2BBBD86A464346B6
:102A1000D371D17903AF39700126C1E74046DFE7B2
:102A200010B580249389A401234204D123439381C8
:102A3000536E1C435466FFF799FF10BDF0B5564620
:102A40009A465F4644464D46131C93465246F0B4A0
:102A5000534383B0071C0D1C0C9C98460020002B90
:102A60003AD0002F03D0BB6B002B00D18DE080212A
:102A7000A38989019AB20A4206D10B434A4A616E80
:102A8000A3810A4062669AB26668002E32DB301C6F
:102A9000930735D4C14610E0321C00F049FF23688B
:102AA000381C9B1923604B46211C9B1BAD19994672
:102AB00001F0C2F9002816D16668281C2168B145CA
:102AC000EAD84A4600F034FF4A4663689B1A6360BE
:102AD00023684B442360504603B03CBC9046994663
:102AE000A246AB46F0BD43464A465946981A06F000
:102AF000ADFCF1E700230020636000269307C9D5F1
:102B0000061E464500D94646281C2168321C00F0A6
:102B10000FFF2368216B9946B1444B4623606368DD
:102B2000AD199B1B636043469E1B002938D0002EC5
:102B3000D1D0231C4033994204D0381C00F086F8D1
:102B400023689946002323632369019363690093F3
:102B500001E0002EBFD0256166612560381C211C74
:102B600001F06AF9019B2361009B63614B4623607E
:102B70006368F61AED18002363600028E9D0434625
:102B80005946981B06F062FCA6E7381CFFF7E2FEE8
:102B90008021A38989019AB20A4200D074E76CE7C8
:102BA000002ED1D1504697E7FFDFFFFFF8B50C1C90
:102BB000061C00F047FF204FBB685D6803239D4360
:102BC0001E4B2C1B9C466444240B1D4B013C2403D0
:102BD0009C4207DD301C002101F0ECF9BB685B1959
:102BE000984204D0301C00F02FFF0020F8BD614255
:102BF000301C01F0DFF9431C0DD001232D1BBA68F6
:102C00001D43104B55601A68301C141B1C6000F0EB
:102C10001BFF0120EAE7301C002101F0CBF9BB6863
:102C2000C21A0F2ADEDD08490968401A0549086002
:102C300001210A435A60D5E78C040020EF0F000001
:102C4000FF0F0000DC08002098080020F0B5474680
:102C500080B4002949D00C1C051C00F0F3FE211C97
:102C600008394F6801233C1C9C430A195068984658
:102C700002339843031C5B488668964252D046460E
:102C800053603E420BD10826B4460F688444C91BEA
:102C9000E4198F6867455ED0CE68FE60B760012793
:102CA000D61876683E4208D1E4184F4E9368B34276
:102CB00000D173E0D268DA6093604C4B27434F60D9
:102CC0000C519C4214D8E408FF3BA210FF3B9340F8
:102CD0004268E4001343436000198368C8608B6056
:102CE0008160D960281C00F0AFFE04BC9046F0BDA6
:102CF000630A042B43D8A30938331A1C5E00B600BC
:102D00008619B3680327B3423FD05A68BA43A24238
:102D100002D99B689E42F8D1DA68CA608B609160E4
:102D2000D960DFE71C1943463B4206D10B68C91A3C
:102D30008A68E418CB68D3609A6001222C4B224346
:102D40001B684A6081609C42CCD32A4B281C1968BE
:102D5000FFF72CFFC6E74646D0184068304209D13D
:102D60004646E418D36892682643D3609A604E6062
:102D70000C51B7E7464626434E600C51B2E7142B80
:102D800014D85B331A1C5E00B9E7012492109440FA
:102D9000221C4468224342601A1CBEE72743D960C4
:102DA0009960CB608B604F600C519BE7542B04D82B
:102DB000230B6E331A1C5E00A1E7AA225200934235
:102DC00004D8E30B77331A1C5E0098E70A4A934253
:102DD00004D8A30C7C331A1C5E0090E7FC267E22EC
:102DE0008DE7C0468C04002094040020FF01000001
:102DF00094080020D808002054050000F0B55F4674
:102E000056464D464446F0B4936885B0002B27D013
:102E100002908B8993460C1C1A0729D50A69002A4F
:102E200026D05A46126892469A072ED5B64B0026EF
:102E300000259846002D6BD0E1692B1E434500D933
:102E4000B14B0298321C676AB847002800DC77E073
:102E50005B469B6836182D1A181A5B469860E9D1B4
:102E6000002005B03CBC90469946A246AB46F0BD5A
:102E70000298211CFFF7B6FA002800D03BE15A4621
:102E8000A389126892469A07D0D4DA075FD5002347
:102E9000002799461D1C0193002F2ED0019B002B6B
:102EA00000D1C3E02E1EBE4200D93E1C206821691D
:102EB000B046A2686369884204D9D2180392964248
:102EC00000DDF1E09E4200DA94E00298E1694A46B2
:102ED000666AB0478046002832DD4346ED1A00D1CD
:102EE00097E04346FF1A5B4642469B68C1449B1AE3
:102EF0005A469360B4D0002FD0D153461B689946F0
:102F000053465F6808239C460023E2440193C3E7CD
:102F100053461E685D6808239C46E2448AE77B4B63
:102F2000281E984200D9181C311C06F01FFB031CF8
:102F3000E169734302983A1C666AB047002825DCB1
:102F4000A289402301201343A381404289E700273F
:102F50000025002D26D0A2689046802292001342C0
:102F600027D0464645455DD39022D20013426AD110
:102F70002068321C391C00F019FD4246A368281C49
:102F80009B1AA36023689C46664426605B469B6848
:102F90003F182D1A181A5B46986000D160E7A38984
:102FA000002DD8D152461768556808229446E2444D
:102FB000CFE720682369984202D86669B542AED24D
:102FC0002E1E464500D94646321C391C00F0EEFC48
:102FD000A36822689B1B9219A3602260002B01D07A
:102FE000301CD3E70298211CFFF70AFC0028A7D168
:102FF000301CCBE7321C494600F0D8FCA3689B1B71
:10300000A36023689C46434666442660ED1A00D0C0
:1030100067E70298211CFFF7F3FB002890D10023FB
:1030200001935EE7A84620682E1CA2E748460A21C5
:103030003A1C00F03BFC002859D04B460130C51A21
:10304000012301932EE721692268521A91464846CE
:10305000626901305600B218D60FB61876104019C2
:10306000321E824201D2061C021C02985B052DD53D
:10307000111C00F035F98046031E3FD04A462169F5
:1030800000F056FCA289224B134080221343A381F7
:103090004346404623614B4648446661F61AA660A3
:1030A0002060A8462E1C64E7161C494600F07EFCF2
:1030B000B4462368029863442360211CFFF7A0FBF9
:1030C000002800D03CE7039B984606E700F0BEFCD2
:1030D00080460028DCD1029D2169281CFFF7B6FD3F
:1030E0008022A38993431A1C0C232B6029E7012318
:1030F0007D1C0193D6E601204042B2E6029A0C33D1
:103100001360A2891DE7C04600FCFF7FFFFFFF7F21
:103110007FFBFFFFB823F0B547469B0080B4C7187C
:10312000002F19D0884600267B68BC685D1E0CD431
:10313000A389012B06D90E22A35E013302D0201CE5
:10314000C04706436834013DF2D23F68002FEBD1FF
:10315000301C04BC9046F0BD0026F9E7F8B5B82352
:103160004F4646469B00C0B4C718002F1CD0894666
:10317000804600267B68BC685D1E0DD4A389012BA8
:1031800007D90E22A35E013303D04046211CC84755
:1031900006436834013DF1D23F68002FEAD1301C6C
:1031A0000CBC90469946F8BD0026F8E7031C0020A9
:1031B000FF2B05D8034A1068C31808205B78184015
:1031C0007047C0462C040020004870476804002067
:1031D000014B18687047C0468804002000487047BB
:1031E00030040020F0B5474680B48B8990B09AB285
:1031F000940741D40C1C051C0E20095E00291CDB21
:10320000281C01AA04F076FF002814DBF023029AA0
:103210001B0213402F4A9F18794279418022884629
:103220001202934232D080228026A38912011343D6
:10323000A381F6000AE0A3899AB24026120622D59D
:10324000802212011343A38100239846281C311CBD
:1032500000F046F8002830D01F4BEB638023A28992
:1032600020601343A381434620616661002B18D17F
:1032700010B004BC9046F0BD0B1C43330B600B61D7
:1032800001234B61F4E78026F600D9E7134BA26ACD
:103290009A42C8D18026A389F6003343A381E6640D
:1032A000D4E70E23E15E281C05F0F0FA0028DFD0F9
:1032B0000123A2891343A381DAE7A3899A05D7D40E
:1032C00002221343A381231C433323602361012380
:1032D0006361CDE700E0FFFF55280000F5400000E6
:1032E000F0B55F464D4656464446F0B40D1C0B35CE
:1032F00083B0071C162D2DD907239D4300D5C7E0A9
:10330000A94200D9C4E000F09DFBF823FF339D42A1
:1033100028D8E908CB4ECB00F318DC689C4200D1DA
:10332000C1E1032362689A43131CE268A168CA6082
:1033300091600122E3185968381C0A435A6000F072
:1033400083FB201C083003B03CBC90469946A24643
:10335000AB46F0BD102900D99AE0381C00F072FB92
:103360001025D6E7690A00D196E0042900D93CE18E
:1033700038239C46A9098C4463465900B14E890004
:103380007118CC68A14215D0032362689A43131CBC
:10339000521B0F2A00DD83E00320002A07DBC4E76D
:1033A000636883435A1B0F2A7ADC002ABDDAE4687B
:1033B000A142F5D1614601310091321C34690832D5
:1033C000944200D161E10323616899430B1C481BBF
:1033D0000F2800DD48E1726132610028A9DA9A4ABB
:1033E000914200D90DE10123C80882109340726810
:1033F0001A43C300F3189868E360A0609C60131C34
:103400007260C4600120009A9210904098424CD89B
:1034100018420DD103220099400091430A1D0092E9
:10342000184205D1009A4000043200921842F9D0A7
:1034300003239846009AD3009946B144CC4692465D
:103440006346DC68A44507D121E1002A00DB33E1B3
:10345000E468A44500D11AE14246636893435A1BCD
:103460000F2AF2DD012163190D436560E068A5684C
:103470000836E86011438560F360B360381CDE6095
:103480009E6059609A5000F0DFFA201C08305AE71D
:103490000C2300203B6056E73F237E219C466DE7CE
:1034A00001235B429846C44484E70323B4686268FE
:1034B0009A439046954203D8521B0F2A00DD86E0BE
:1034C000231C4344614A0193614B93461B68126875
:1034D000EB18013200D15CE15E4A944663441B0B59
:1034E0001B030093381C009900F064FD031C814607
:1034F000013360D0019B834200D9F8E0564B009A1B
:103500009A461B689C46534662441A60019B4B4591
:1035100000D14CE15B461B68013300D15EE14B46B4
:1035200001995B1AD21853461A6007234A46134082
:1035300000D113E108218946D21A9144474AD21A90
:10354000009B381C4B441B051B0DD31A191C9B46B2
:1035500000F030FD431C00D134E14B46C01A01237A
:103560005844184353461B685B441A1C53461A6060
:103570004B46B3605860B44213D043460F2B00D87B
:10358000F7E04346072160680C3B8B430639014056
:10359000052019436160E118486088600F2B00D94D
:1035A00014E12F4B19688A4200D91A602D4B196813
:1035B0008A4200D91A600323B46862689A43131CD4
:1035C0005A1B9D4200D9B9E00F2A00DCB6E0012366
:1035D000291C6519194313436160381CB5606B6081
:1035E00000F032FA201C0830ADE6142973D95429B2
:1035F00000D9A8E06E239C46290B8C4463465900F1
:10360000BCE64A0A042A6CD88A093832101C5200D7
:1036100092009446B444624603219268884662450B
:1036200000D19EE0414650688843834202D29268AE
:103630009445F7D1D0687368E060A2608460D4607C
:10364000E0E6C0468C040020FF010000980800203E
:10365000D80800200F100000DC080020081000002F
:10366000D4080020D0080020012163190D43014334
:10367000656073613361DA609A6059601850381C74
:1036800000F0E2F9201C08305DE67368BAE6082312
:103690009B46073BDC449B46DA4443465246134272
:1036A00000D0CDE631E0231C64698A1C0833009207
:1036B000A34200D181E634E60122E3185968381CA0
:1036C0000A435A60E368A268D3609A6000F0BCF9CC
:1036D000201C083037E65B239C468C446346590027
:1036E0004CE6142A58D85B32101C520090E7B442C2
:1036F00000D060E702E7009B013B00934B461A684D
:10370000083B91469A4200D080E04346009A13421B
:10371000F1D17368834373604000984200D9C4E6D6
:10372000002800D1C1E6184272D152460092009A98
:103730004000043200921842F9D07BE6381C00F0B9
:1037400083F90020FFE5AA235B00994217D8DD3BEF
:103750009C46E90B8C44634659000FE680225201D7
:10376000EEE60123801083407168101C0B437360E8
:1037700062E701234A464C465360002320E7264B6C
:10378000994210D87C239C46A90C8C44634659006E
:10379000F4E510330093A5E6542A23D80A0B6E32C1
:1037A000101C520034E77E23FC219C46E6E51B05F5
:1037B00000D0AFE6009BB1684344181C01230343CB
:1037C0004B60EEE6002301209B46CBE6211C381C13
:1037D0000831FFF73BFA53461A68E2E65B464A4671
:1037E0001A60A2E6AA204000824204D8CA0B7732AF
:1037F000101C52000CE70848824204D88A0C7C3224
:10380000101C520004E7FC227E2001E7736883E766
:10381000534600930EE6C04654050000F0B54746F7
:1038200080B41E1C82B0051C0F1C141E124B16D037
:103830001B689846FFF7C8FC089B00900193281C62
:10384000391C221C331CC047431C04D10023089A96
:1038500013608A332B6002B004BC9046F0BD1C6834
:10386000FFF7B2FC089B00900193281C0021034A3B
:103870000123A047E8E7C0469C08002054BC000094
:1038800082B000290AD0002A0BD0002B0BD013786D
:103890000B601078431E984102B0704701A9002ABE
:1038A000F3D10020F8E702204042F5E770B5CCB232
:1038B000830737D0531E002A1FD00278A2421DD0A2
:1038C000032505E0002B18D00278013BA24215D059
:1038D00001302842F6D1032B11D8002B0DD00278ED
:1038E000A2420BD0421CC31804E00132511E0978D9
:1038F000A14203D0101E9842F7D1002070BDFF25D1
:1039000029400D0229430D04074E0D430268074963
:103910006A40511891433142DFD1043B0430032BFC
:10392000F4D8DAE7131CD6E780808080FFFEFEFE25
:1039300070B50F2A32D9041C0C430B1CA40731D1DB
:10394000151C041C103D2D0901352D0149191E6857
:1039500026605E6866609E68A660DE681033E6607A
:1039600010349942F3D10F2345191340032B1BD96F
:103970001C1F0023A4080134A400CE58EE500433C9
:10398000A342FAD1ED18C91803231A4005D0002329
:10399000CC5CEC5401339342FAD170BD051C002A73
:1039A000F5D1FAE7051CF2E71A1CF8E770B5884272
:1039B0000BD98B18984208D2991A531E002A03D0AB
:1039C000CA5CC254013BFBD270BD0F2A09D8051C4A
:1039D000002AF9D00023CC5CEC5401339342FAD195
:1039E000F2E7041C0C430B1CA40726D1151C041C75
:1039F000103D2D0901352D0149191E6826605E68AC
:103A000066609E68A660DE681033E66010349942F6
:103A1000F3D10F2445191440032C10D90023043C82
:103A2000A4080134A400CE58EE500433A342FAD1C6
:103A30000324ED18C9182240CAE7051CCAE7221C56
:103A4000C6E7C0467047C0467047C046F0B5564608
:103A50004D4644465F46F0B4804685B00E1E914602
:103A600000D1FCE0371C083FFFF7ECFF7B684D46B8
:103A700003221C1C0B35BA469443162D00D974E062
:103A800010221025A94500D974E0944255DA39195D
:103A90000191D54988680199884200D1EAE04868D7
:103AA000012103900291011C012081438C46019960
:103AB0008B46DC4461464968014260D1032103988A
:103AC0008C4688430019904200DBCCE002991942F1
:103AD00000D09BE061463B68FB1A9B465B688B43CA
:103AE000C1180291914255DB019A5F46D3689268F2
:103AF0000837D3609A605B465A46DB689268D360A9
:103B00009A60221F242A00D92EE13B1C132A09D9CE
:103B10005B46316899607168D9601B2A00D92DE134
:103B20001033083632681A6072685A60B2689A6058
:103B30005B463E1CDA465B68029C621B0F2A52D829
:103B4000012152460B4023435360221C52445368C8
:103B5000194351604046FFF777FF301C05B03CBC6D
:103B600090469946A246AB46F0BD043295432A1EC4
:103B700000DB87E70C23424600201360EEE7029942
:103B8000194243D13B68FB1A9B46594603234968B7
:103B900099430B1C1B190193934237DB5B465A4632
:103BA0005F469268DB680837D3609A60221F242A38
:103BB00000D9DEE03B1C132A09D95B4631689960C5
:103BC0007168D9601B2A00D9ECE0103308363268DE
:103BD0001A6072685A60B2689A605B463E1C5B6805
:103BE000019CDA46A9E701205146034049191D43CB
:103BF00053465D60131C03438A184B6053680831B9
:103C0000184350604046FFF721F8A3E74946404675
:103C1000FFF766FB8146002800D1F1E07B68011CBC
:103C20000122181C904308393F18B94200D196E090
:103C3000221F242A00D982E04B46132A65D8321C61
:103C4000116819605168596092689A604046311C49
:103C5000FEF7FCFF4046FFF7F7FE48467EE7111CE3
:103C6000FFF73EFB7AE70199041CCA688968CA60BD
:103C7000916062E74168032081438446281C09194A
:103C80001030019081424ADADB07BFD460463B68BE
:103C9000FB1A9B465B6883430198C91802918842CE
:103CA00000DD77E75B465A465F469268DB68083777
:103CB000D3609A60221F242A00D98FE03B1C132A6C
:103CC00009D95B46316899607168D9601B2A00D9AF
:103CD0008CE01033083632681A6072685A60B26835
:103CE0009A605B465919404B40469960029B5A1BAB
:103CF00001231A434A605A46526813401D435B46EB
:103D00005D60FFF7A1FE381C28E731681960716813
:103D100059601B2A18D8321C0833083290E7324BFE
:103D20007A199A600123491B194351607A68404609
:103D300013401D437D60FFF787FE301C0EE74846A9
:103D4000311CFFF733FE81E74B46B1689960F1689B
:103D5000D960242A1CD0321C1033103270E74A6814
:103D600003218A43A418E8E6381C311CFFF71EFE25
:103D7000DEE6381C311CFFF719FE2EE75B46B16802
:103D80001961F1685961242A16D018331036C9E632
:103D90004B46326949461A61321C70691833183231
:103DA00048614DE75B46B1681961F1685961242AA1
:103DB0000BD0183310360AE75B4632699A615A46CF
:103DC00071692033D1611836ACE65B4632699A617D
:103DD0005A4671692033D1611836F8E6381C311C17
:103DE000FFF7E4FD7DE7C0468C0400205B46B16828
:103DF0001961F1685961242A07D0183310366AE72F
:103E00004046FFF721FE0020A8E65B4632699A6132
:103E10005A4671692033D16118365CE7092108B52B
:103E20008389021C0B400020092B00D008BD101C08
:103E3000FEF7FCFCFAE7C046F8B5051C0C1C002890
:103E400002D0836B002B4AD08021A289890193B2D2
:103E50000B4206D10A433D4B616EA2810B40636663
:103E600093B200216160990636D4590724D5216B9D
:103E700000290CD0231C4033994202D0281CFEF7A5
:103E8000E5FE00232363E36B6360002B41D12369CC
:103E9000002B4DD0A789BEB2B30723D12369281CBC
:103EA00023601A1CE1696369256AA847031C6060E6
:103EB0000020002B09DDF8BDD9063ED508261E429C
:103EC0002BD104231A43A281E1E7002B1BD040230E
:103ED000A28960601343A38101204042EBE7FEF713
:103EE00039FDB1E70123A381194B1A491868FFF77F
:103EF00011F90923A7811E40092ECFD1281C211CAE
:103F0000FEF7D2FBCAE72023A28901381343A3811D
:103F1000D1E7A36B00202360CDE7281C211CFEF70E
:103F20006FFC0028D8D1A289A060B243A061C8E785
:103F3000281C211CFFF756F9ACE709232B6040230E
:103F400001201A43A2814042B5E7C046FFDFFFFFD0
:103F5000CCBA00001D3E00000A1C031C024330B511
:103F60000220002A00D130BD80221206914216D0D4
:103F70000C4A04208C180C4A9442F4D90B4C0C19AE
:103F80009442F0D90A4A4900490803209142EAD9EB
:103F9000064A00209142E6D158425841E3E7002BFF
:103FA000E1D0EFE70000F0FFFFFFDF7F0000F07FD0
:103FB000FFFF0F0038B50023064C051C081C2360CA
:103FC00007F03EFD431C00D038BD2368002BFBD01A
:103FD0002B60F9E70809002070B50C785E2C2AD018
:103FE0004D1C00260021031C421CFF3219700133B6
:103FF0009342FBD1002C0FD00123734003552A7844
:10400000691C2D2A0CD05D2A08D0002A02D0141C6D
:104010000D1CF3E7281C70BD681EFCE7081CFAE7BE
:104020006A785D2A0CD094420ADC023501340355CB
:10403000A242FBDCE3E78D1C4C7801260121D2E78C
:104040000D1C2D24DAE7C046004870470000C07FF1
:104050000EB410B59DB002A9029008610B488224ED
:1040600088604861012040421FABC881084804CBEA
:10407000A400006801938C8101F092FB0023029A56
:1040800013701DB010BC08BC03B01847FFFFFF7FC2
:104090002804002038B50C1C0E25495F05F0B0F847
:1040A000002803DB236D1B18236538BDA289024B52
:1040B0001340A381F9E7C046FFEFFFFFF8B5171CD7
:1040C0008A89051C0C1C1E1CD30506D50E23C95E4F
:1040D0000022022304F0ECFBA289054B281C1340AC
:1040E000A3813A1C0E23E15E331C02F011FFF8BDE0
:1040F000FFEFFFFF38B50C1C0E25495F04F0D8FB1D
:10410000431C06D08022A38952011343A38120655A
:1041100038BDA289014B1340A381F9E7FFEFFFFFF0
:1041200008B50E23C95E02F007FF08BD10B583076E
:1041300027D00378002B26D0031C032102E01A7835
:10414000002A1CD001330B42F9D119680F4A104CD8
:104150008A188A4322420FD1043319680B4A8A18FD
:104160008A43224208D104331968084A8A188A43CC
:104170002242F1D000E001331A78002AFBD1181A4C
:1041800010BD031CE1E70020FAE7C046FFFEFEFE7B
:104190008080808070B5161C0D1C04F0B9FE002EC6
:1041A0000BD06B226B005B0DD31A002B05DD034D8A
:1041B0001C050022631906F00DFB70BD0000F03FE6
:1041C000F0B556465F464D4644460023F0B40E1CFB
:1041D0009FB01A93002400231991357892468346A4
:1041E000069102930394AE4A2D2D00D982E0AB00D4
:1041F000D3589F4680465846FEF7F0FF036858465E
:104200009946FEF7EBFF0068FFF790FF4946021C56
:10421000201C05F009F8002800D115E10023B14663
:10422000002208930B932023291C9943002345293E
:1042300000D179E04946002900D0CCE00A9B1A431E
:1042400000D0FEE00B9B002B00D114E35346002668
:104250000027002B0BD00023069C059353461C60BF
:10426000059B002B03D0802109067B181F1C301CE6
:10427000391C1FB03CBC90469946A246AB46F0BDE7
:1042800000230593731C19937578002DDED01E1C36
:10429000302D33D0002307960A932B1C303B092B7B
:1042A00001D900F0BEFC079B00275A1C0023002602
:1042B000181C0DE0B900CF197F007F19303F19920B
:1042C0001578141C2B1C303B01360132092B91D878
:1042D000082EEFDD83001B185B005D19281C3038A9
:1042E000EDE701230593CDE70136199635782D2D9D
:1042F00000D87CE700230593302DCBD17378582B61
:1043000000D162E3782B00D15FE301361996321CAD
:104310000136731E1D78302DF8D0002D00D190E0AD
:10432000012307920A93B8E74B460A9913430B43BC
:1043300000D18BE7199B191C0693013319934D7813
:104340002B2D00D1B3E32D2D00D1D3E200230C930C
:10435000291C30392B1C092900D926E3302D07D11F
:10436000199B013319931D780133302DFAD02B1C82
:10437000313B191C0023082900D95BE7199C2B1C31
:10438000611C199165788C46291C3039303B09290C
:1043900011D89446A11C9800C31819915B005B19B1
:1043A0000D780A1C281C3038303B01310928F2D91D
:1043B000111C62468C466146091B082901DD00F08C
:1043C00004FD38498B4200DD0B1C0C9884464142A9
:1043D0004B4063442EE7089A9B1A0A93002E00D1A3
:1043E0004E464C46102C00DD1024381C07F078F89F
:1043F00002900391092C15DD231C2B4A093BDB009D
:10440000D3181A685B6806F0E5F9029003914046FC
:1044100007F066F8021C0B1C0298039905F074FA69
:10442000029003914B460F2B40DC0A9B002B00D0DF
:1044300047E2029E039F5346002B00D110E7199CD0
:104440000CE700260027F6E75846FEF7C7FE00688F
:10445000FFF76CFE199B181819900578002E00D0F4
:10446000F4E1302D01D000F0DBFC431C19931D78E2
:104470001A1A0133302DF9D02B1C313B082B00D9EF
:1044800032E20132089201229146199B303D079396
:10449000BA00D7197F00EF19181C0022E4E1C046CA
:1044A00018C200001F4E0000F8C500004B461D1B3F
:1044B0000A9B9C466544002D00DC5BE30F232B40E8
:1044C0000AD0D64ADB00D31818685968029A039BB1
:1044D00006F080F9029003910F239D4345D09A2363
:1044E0005B009D4200DD0DE22D11012D01DC00F08D
:1044F0005EFD029803990024C94BB046261C1C1C83
:10450000069301232B4203D02268636806F062F908
:1045100001366D100834012DF3D1341C464602904B
:104520000391C04A039B944663440393069BE400B3
:104530009C46029A039B64442068616806F04AF92D
:104540000A1C031C141C02930394B74B1340B74A74
:10455000934200D9D6E1B64A934201D800F002FD59
:10456000B44B039301235B4202930023069300970D
:1045700058460799321C4B4604F026FA002800D111
:10458000C0E10A9A5E465342D21713400B930023B0
:1045900098461F1C534683461193F6E0891A5B1A0E
:1045A0001F2900DDD1E101228A40109200220C92E5
:1045B000EA18E418069B91469C46131C6444AA42E0
:1045C00000DD2B1CA34200DD231C002B04DD4A462A
:1045D000D21A9146E41AED1A0B9B002B16D0391C07
:1045E000301C1A1C04F03EFB071E00D139E2301CBF
:1045F000391C1A9A04F088FA0D90002800D130E294
:10460000301C1A9904F090F90D9B1A934B46002B1D
:1046100009DD301C1A994A4604F082FB1A900028E2
:1046200001D100F0E8FB079B002B08D05146301C5D
:10463000079A04F017FB8246031E00D112E2002CF9
:1046400008DD5146301C221C04F06AFB8246031E22
:1046500000D107E2002D07DD391C301C2A1C04F0B4
:104660005FFB071E00D1FCE1301C1A99524604F092
:10467000D9FB8046002800D1F3E1C368391C0793B9
:104680000023C36004F0B2FB002801DA00F030FC24
:1046900000D1C8E34046391C04F02AFD80230022E3
:1046A000DB05041C0D1C05F073F8002800D131E176
:1046B000079B002B00D155E1039B00240C930023A2
:1046C0000D935D4B5C4D10930C9B574A13409946DC
:1046D0005A4B994500D192E1069B002B29D0D42357
:1046E000DB04994525D80D981099554A554B05F08E
:1046F0004FF8002818D00D98109905F0B1F800284F
:1047000000D11FE306F0ECFE0D901091079B002BEB
:1047100000D012E38022120694460D9B1493109B46
:1047200063441593149C159DD6234A46DB04EB186D
:104730009D1A0898099904F0EBFB021C0B1C201C25
:10474000291C06F047F80B1C021C0898099905F073
:10475000DBF8031C0C1C02930394069B002B04D172
:10476000314B2340994500D1A4E1301C1A9904F043
:10477000DBF8301C514604F0D7F8301C391C04F02B
:10478000D3F8301C414604F0CFF85B46301C596822
:1047900004F0A2F88246002800D162E15B46594647
:1047A0001B690C319A1C92000C30FFF7C1F8029B78
:1047B000039C191C221C1BAB00931CAB0891099293
:1047C0000193301C231C0A1C04F034FC1A900028AE
:1047D00000D110E3301C012104F08CF9071E00D138
:1047E0003FE100230A9A0793934200DA07921B9A4B
:1047F000002A00DAA5E00B9B079C9D18069B1C99DC
:10480000D21A362352185B1A0F498A4200DAC5E6DB
:1048100000220C9201321092CAE6C046F8C5000090
:10482000D0C600000000B0FC0000F07F0000A07CBB
:104830000000907CFFFFEF7F0000F03F0000E07F72
:104840000000C0FFFFFFDF4103FCFFFF0023B14674
:10485000002208932B1C303B092B09D8511C1D1E2C
:1048600000D0EAE10A1C1998431C19934578F1E736
:1048700001230B93D7E44E2D07D000DC67E2692DAE
:1048800000D168E26E2D00D0E0E4199AA9490AE04F
:10489000013213781C1C413C192C00D82033013103
:1048A000834200D0D2E408780028F1D1531C199338
:1048B0005378282B00D193E39F4B0393002302935B
:1048C000B7E50A9B002B00DC82E2162B00DD14E228
:1048D0009A4ADB00D31818685968029A039B05F0BE
:1048E00079FF061C0F1CA6E50023994608930133A7
:1048F0000B9398E401230C9306990B1C0233199334
:104900008D7825E522235A4613608D4B03930023AF
:1049100002938EE58B4B201C291C002205F05AFFC8
:10492000079B0D901091002B17D1802212060B1CB3
:10493000944663440E900F93039B0E9C0F9D0C9323
:10494000C2E6079B0B9D9C1A58E77F498A1A0121F2
:10495000914001220C9110922AE60D9A109B0E9222
:104960000F93E9E7029B002B23D1029A039B0C9340
:104970001B0323D1201C291C0022744B04F0FEFED3
:10498000002800D0F8E200226E4B201C291C05F004
:1049900021FF802212060B1C944663440D90109157
:1049A00016901793169C179D8EE6069B199300236D
:1049B00040E4012B00D1F4E1039B0C9300230D9301
:1049C000624B0024624D10937EE61AAB0093059B68
:1049D0005846019319A91BAB5E4A03F0F1FB07236C
:1049E0000340041C1D1E00D12BE5062B00D048E11E
:1049F0000023013619960027002605931BE5089A27
:104A0000099B12921393544A0C9B9446634403935C
:104A100008940995029C039D201C291C04F078FA37
:104A2000021C0B1C0898099905F0D4FE021C0B1CF3
:104A3000201C291C04F068FF414B484A0290039156
:104A40000B40934200D8F3E0454B139A9A4205D0AD
:104A5000434B039301235B42029386E6129B01338F
:104A6000F6D153460A93119B4546D946B846B346FC
:104A70009A461A9922235A461360314B0393002316
:104A80000293029E039F584603F04EFF58460A9930
:104A900003F04AFF5846414603F046FF5846494650
:104AA00003F042FF5846291C03F03EFFC3E40023F5
:104AB0000C9321E70D9B109D181C291C994606F0AC
:104AC0009DFC06F0D1FC0B1C021C291C484606F07C
:104AD0001BF9079B08900991002B19D1029B002B11
:104AE00016D1240314D1089809991E4A1E4B04F0CC
:104AF00045FE002800D138E653460A93119B4546EF
:104B0000D946B846B346029E039F9A461A99BAE719
:104B100008980999134A154B04F030FE0028EBD190
:104B200008980999124A074B04F03CFE002800D16E
:104B30001BE6E1E738C300000000F8FFF8C50000FD
:104B40000000F07F0000E03FE3FBFFFF0000F03FCC
:104B50000000F0BF3CC300000000B0FCFFFF9F7CE2
:104B6000FFFFEF7F9535A094FFFFCF3FFFFFDF3FB3
:104B700035E5AF35002D00D1F7E40F236D422B4012
:104B80000AD002980399CD4ADB00D3181A685B68F3
:104B900005F0E2F9029003912D1100D1E5E41F2DFB
:104BA00038DCEB0600D42BE26A230693002D14DDDB
:104BB0000298039901239846C14C43462B4203D0E7
:104BC0002268636805F006FE6D100834002DF4DCE1
:104BD000069B02900391002B13D0029B039C630061
:104BE000590D6B23221C5B1A002B0ADD1F2B00DCE6
:104BF00041E200210291342B00DC47E2DC239B04DC
:104C00000393029803990022002304F0B1FD0028C9
:104C100000D1ACE422235A46002613600027FFF798
:104C20000AFC0023079C984600270026FFF7E3FABA
:104C3000D4239B04CC1803948FE5089884468C44B5
:104C400060460890012900D1B6E14A4449464446ED
:104C500004E0B800C7197F00914209D00131481E15
:104C60000828F6DD1029F7DCA00004196400F3E73A
:104C7000A046511C8946082A00DDC6E0199BFFF7B3
:104C800007FC1A9A002A07D01CA8352104F068FAFC
:104C900058461A9903F048FE1B9A062D07D88949F1
:104CA000AB00CB589F46884B039300230293230706
:104CB00001D4FFF7BEFB8023039A1B061A4303921D
:104CC000FFF7B7FB1C9B02931D9B0393EFE71C9B15
:104CD0001D9902937D4B9C467D4B624412050B400F
:104CE0001A430392E3E7002303930293DFE7794B30
:104CF000039301235B420293D9E74A4625239B1A7B
:104D00000A9A9A4201DDFFF7D1FB4B460F246B4D07
:104D1000E41AE300EB1818685968029A039B05F03F
:104D200059FD0A9B1B1BDB00EB181A685B6805F03A
:104D300051FD061C0F1CFFF77EFB0D9A109B149271
:104D40001593EFE400230D93634B1093DEE4492D9C
:104D500001D0FFF77BFA199A60490BE00132137812
:104D60001C1C413C192C00D820330131834201D056
:104D7000FFF76CFA08780028F0D1111C19925848F6
:104D800009E00B781D1C413D192D00D8203301305E
:104D9000A34200D0F9E004780131002CF1D119913F
:104DA000B3E5039B0C93002B00D007E653460A9310
:104DB000119B4546D946B846B3469A4622235A46E1
:104DC0001A991360002600275DE6464BFFF7FDFAAF
:104DD0000A9B163301DAFFF769FB029803990A9BD5
:104DE000DA00364B9B1A1A685B6805F0B5F8061CAA
:104DF0000F1CFFF720FB53460A93119B4546D946EB
:104E0000B846011CB3469A4634E6102905DC4246F2
:104E1000920042449846520090441998002223E59B
:104E20000022FFF729FB53460A93119B45469A46F9
:104E3000079BB846D946B346089E099F002B00D170
:104E4000A6E0029B039C28492303221C1B0B8B42D8
:104E500000D1EAE00C9B002B00D1A2E0039A1342A0
:104E60000ED002980399079B069A002B00D1A5E06B
:104E7000FFF790F9321C3B1C04F046FD061C0F1C8A
:104E8000069B002B17D0194B301C13930023129351
:104E9000391C129A139B05F09DFC031C0C1C061C6C
:104EA0000F1C02930394002905D1029B002B02D111
:104EB00022235A4613601A99E5E5C046F8C500005A
:104EC000F0C20000D0C200000000F07F33040000F8
:104ED000FFFFEFFFFFFFFF7F0000F03F2CC300004C
:104EE00030C300001F4E0000FFFF0F0000005039CC
:104EF00053460A93119B45469A46079BB846D946A6
:104F0000B346089E099F002BBAD1029B002BB7D154
:104F1000039B1B03B4D1039A604B1340D622D204E7
:104F20009342ADD96B69002B02D12B69012BA7DD10
:104F3000291C5846012203F0F3FE4146051C03F0EC
:104F400055FF00289CDD069B002B5FD0039A534B36
:104F50001340D622D204934258DCDC2292049342BE
:104F600091DC2BE7D4229204231C944663440393E0
:104F700000230693FFF7FBFA0023494C169317947E
:104F800000230D93474B10930CE501321992BCE4BA
:104F9000039B1B0300D05DE7029B002B00D059E769
:104FA000D1E7109B029A134200D169E759E73E4BC3
:104FB00000240693FFF7B5FA4A465AE6FFF7EAF8E7
:104FC000021C0B1C301C391C05F09EFE0022002325
:104FD000061C0F1C04F0CCFB002800D0EEE64FE7C7
:104FE00019A832491CAA03F07DFB052800D063E410
:104FF0001D9B2A4A1A431C9B03920293FFF719FA3E
:1050000000230693002D00DDD2E5FAE5039A234B39
:105010001340274A9446274A63441A4301235B42BC
:1050200003920293029E039F2AE7069B0299002B9C
:105030001ED0D420194BC0042340834218D86B20C3
:105040001B0DC31A6C389840031C994200D001E72D
:10505000194B9A4217D08021104B49031A40131C58
:105060008C466344039300230293029E039F07E749
:1050700001235B42E9E7012252429A40131C029A43
:105080001A400292BDE54B1CE5D1F2E40121203B20
:10509000494299400A400392B3E5C0460000F07FC0
:1050A0000000E0BF0000E03FD0C6000018C30000D1
:1050B0000000F0FFFFFF0F00FFFFEF7FF0B54D4650
:1050C00056465F464446F0B41E1C554B85B00291CF
:1050D0001D6803900B1C9146082100E03B1C1C78C6
:1050E0005F1C2A1952781142F8D12D2C69D0002268
:1050F00090462B2C00D173E0002E04D0102E00D14E
:1051000071E0321C05E0302C00D17DE00A230A2634
:105110001A1C444B111C4344181C92469B4604F035
:105120001BFA58460191514604F090F90422844636
:10513000D3469246321C3B1C2E1C002065460021A3
:1051400094460DE0303CA44518DD421C06D0A9422F
:105150002ED82AD05A460120514361181C780133B9
:105160005746321952781742ECD103273A4005D0FE
:10517000012A20D05722A41AA445E6DC421C25D0DF
:105180004246524251400A1C49464244002944D0FA
:10519000002813D1101C029B4A46136005B03CBC8A
:1051A00090469946A246AB46F0BD019A9442D1DDA5
:1051B00001204042D2E73722A41ADDE7101C013B50
:1051C000EAE79F1C5C780123984695E72222039921
:1051D00014480A604A464044002ADFD0013BDBE71E
:1051E0009F1C5C7888E710231A1C302C00D090E7B5
:1051F0003B7810329343582B00D082E710237C7801
:105200001A1C0237102684E720223B789343582B40
:10521000F4D0082308261A1C7BE7101CBEE7C04602
:105220002C040020FFFFFF7FF0B54D465F46564639
:105230004446F0B499467A4B8DB00A911D680B90A4
:105240000B1C0892082100E0331C1C785E1C2A19F4
:1052500052781142F8D12D2C00D1B2E000220792F1
:105260002B2C00D1B2E04B46002B0FD0102B00D1DD
:10527000AFE04B460593DB170693079B002B11D03D
:10528000802300221B060092019310E0302C00D1F5
:10529000A6E00A230593002306930A339946079B49
:1052A000002BEDD101225F4B5242009201930098F6
:1052B0000199069F059B98461A1C3B1C04F086FA30
:1052C000009801993B1C09924246069704F07EFA29
:1052D0000423884600279A46069B834600950020B3
:1052E000454600213A1C984619E0303CA14525DD91
:1052F000531C12D0A9424FD801D158454CD858451B
:1053000043D0059A434604F081FAE31702940393CD
:10531000029B039C0122C018614134780136574634
:10532000009B1B195B781F42DFD103273B4005D050
:10533000012B34D05723E41AA145D9DC171CB446FD
:10534000531C2FD0079B061C009300230193009A47
:10535000019B002554429D41694066400B1C00980A
:105360000199321C12184B410899101C002955D084
:10537000191C002F22D10A9E089B1E600DB03CBC58
:1053800090469946A246AB46F0BDA942B9D1099BC9
:105390009C42B6DD5846291C01225242BDE7372304
:1053A000E41AC9E7079B002B26D101201D49404282
:1053B00022230B9A1360089B002BDFD06646013E28
:1053C000DAE79E1C5C78012307934CE79E1C5C780F
:1053D00049E7302C14D010230593002306935EE791
:1053E000202233789343582B0FD0082305930023B2
:1053F00006930833994652E7802100200906D7E733
:10540000202233789343582BE5D1102305930023B2
:105410000693103374789946023640E7191CADE7BD
:105420002C040020FFFFFF7FF0B54D465646444652
:105430005F46F0B41E1C574B85B088461D6803902C
:105440000B1C9146082100E0031C1C78581C2A19EB
:1054500052781142F8D182462D2C6AD00022029255
:105460002B2C6CD0002E0FD0102E6CD00120311CB4
:105470004042019603F0EAFF071C0120311C404224
:1054800004F06AF88C4607E0302C64D005230A2625
:105490009C46414F05330193042253469246013AFC
:1054A00000200021934600960EE0009A303CA24274
:1054B00019DD421C06D0B9422FD82CD00120019A08
:1054C000514361181C78013356462A195278164206
:1054D000EBD15E46324006D0012A21D05722A41AD1
:1054E000009AA242E5DC00281DDB029CA446624231
:1054F000514061444A46002A05D04246002800D067
:105500005A1E4B461A60081C05B03CBC9046994692
:10551000A246AB46F0BD6445D0DD01204042D1E754
:105520003722A41ADCE7222203990A6001214942AA
:10553000E0E79A1C5C7801239246029392E79A1C5A
:1055400092465C788EE7302C12D00F239C460133B4
:10555000124F0193A0E7534620221B789343582B08
:105560000CD007239C4601330D4F0193082693E787
:10557000534620221B789343582BE6D153465C7840
:1055800002239C460D33E2449C460133034F0193B2
:10559000102681E72C04002099999919FFFFFF0F2D
:1055A000FFFFFF1FF0B556464D465F464446F0B438
:1055B0009A46764B8DB009911D680B900B1C069294
:1055C000082100E0331C1C785E1C2A195278114215
:1055D000F8D12D2C00D19FE000220A922B2C00D173
:1055E0009FE05346002B1AD0102B00D19CE053466D
:1055F0005246059301204042C117DB170893994694
:1056000004F0E4F8524680460F1C4B46012040420D
:10561000C11704F0DBF80792C346B8460EE0302C01
:1056200000D18EE005230793594B9B46594B984672
:105630000A230593002308930A339A46042300277C
:105640009946089B00950020454600213A1C984643
:1056500019E0303CA24525DD531C12D0A9424ED89A
:1056600001D158454BD8584542D0059A434604F0DD
:10567000CDF8E31702940393029B039C0122C01808
:105680006141347801364F46009B1B195B781F42FD
:10569000DFD103273B4005D0012B33D05723E41A39
:1056A000A245D9DC171EB4462FDB0A9B061C0093CB
:1056B00000230193009A019B002554429D416940BB
:1056C00066400B1C00980199321C80185941069BBA
:1056D000002B06D0099B002F01D06346013B069AA0
:1056E00013600DB03CBC90469946A246AB46F0BD57
:1056F000A942BAD1079B9C42B7DD5846291C01221A
:105700005242BEE73723E41ACAE722230B9A01204C
:105710004042C1171360DAE79E1C5C7801230A93AC
:105720005FE79E1C5C785CE7302C1CD00F2307934E
:10573000103B9B46184B9846102305930023089373
:105740007CE7202233789343582B11D0072307930B
:10575000083B9B46114B984608230593002308936A
:1057600008339A466AE7202233789343582BDDD1D9
:105770000F230793103B984611330593002308939A
:1057800010337478044F02369A4645E72C04002003
:105790009999999999999919FFFFFF0FFFFFFF1F99
:1057A000F0B55F46444656464D46F0B4C3B00C1CB7
:1057B000079193460F930990FDF710FD0368181C9D
:1057C0001993FEF7B3FC1A90A3891B0606D5079B15
:1057D0001B690893002B01D101F086F832AB2593A9
:1057E0000023DA4625AFBB607B60169317931893AE
:1057F00032AE10931B930B9353461B785446002BE9
:105800001CD0252B02D119E0252B03D0013423789D
:10581000002BF9D15346E51A10D053463360BB68CC
:105820007560EB18BB607B6801337B60072B27DC5E
:1058300008360B9B9C46AC4463460B932378002BA5
:1058400027D0002316A90120621CCB77637810248F
:10585000404200218046A446002070344025A146E5
:1058600092460A90834608912030514601311A1C15
:10587000203A582A00D904E3D64C9200A258974601
:10588000099807993A1C03F01BFD002809D132AE94
:10589000CFE7BB68002B04D0099807993A1C03F0A6
:1058A0000FFD079B9B895B0607D40B9843B03CBC5C
:1058B00090469946A246AB46F0BD01204042F5E72E
:1058C0008A4604235A461A4393460B78CDE70B7851
:1058D0004A1C2A2B01D101F0A0F9302149428A4605
:1058E0009A445446111C0022092C12D8B046161CAA
:1058F0005246B3009B195B000131D6184B1E1B7832
:105900001A1C303A092AF4D9321E464601DA00F050
:10591000E6FF9046ABE75B464A4613439B468A4602
:105920000B78A2E70022141C303A92469A44524661
:10593000B246261CB3009B195B0001319E184B1E1A
:105940001B781A1C303A092AF4D90A9656468EE773
:105950008A460899149316AB5A46D97710231A43EE
:1059600093465B469B0600D48FE107230F9A0732CC
:105970009A4301339C46944463460F9353681268DC
:105980000D930C92002B00DA8EE10C980D9916AB5A
:10599000DD7F4346021C139301230A43414600293D
:1059A00003DB5846802188438346002A00D09FE3CA
:1059B0004246002A01D100F09CFC012B00D1C9E332
:1059C000022B01D100F0D0FC32AB1C1CB1465B466F
:1059D000AB4608930C9A0D9B5807D6080721DD08A3
:1059E00030432B1C051C1140013C30312170021C3E
:1059F0001D43F1D10C920D930B1C08995D46119437
:105A00004E468B46221CC90700D49FE3302B01D1A0
:105A100000F08FFF119B013A013B191C11933023B9
:105A2000137032AA531A0E930E9A131E434500DACE
:105A30004346089300231593002D02D0089B0133A1
:105A4000089302235A461A40914602D0089B02331B
:105A5000089384235A461A40129200D026E20A9BE9
:105A6000089A9C1A002C00DC20E2BA687B685A4D28
:105A7000102C20DD10218846311C099E03E0103CCB
:105A80000831102C16DD4046103201330D6048609D
:105A9000BA607B60072BF2DD301C07993A1C03F0DB
:105AA0000FFC002800D0FCE6103CBA687B6832A9E5
:105AB000102CE8DC0E1C74600133A4183560BC6047
:105AC0007B60072B01DD00F0BCFC16AB0836DD7FE8
:105AD000EDE107228A460899149316ABD9770F9BFC
