:1000000000400020CD0C00000D0D00000F0D000081
:1000100000000000000000000000000000000000E0
:10002000000000000000000000000000110D0000B2
:100030000000000000000000130D0000150D00007E
:10004000170D0000170D0000170D0000170D000020
:10005000170D000000000000170D0000170D000034
:10006000170D0000170D0000170D0000170D000000
:10007000170D0000170D0000170D0000170D0000F0
:10008000170D0000170D0000170D0000170D0000E0
:10009000170D0000170D0000170D0000170D0000D0
:1000A000170D0000170D0000000000000000000008
:1000B0000000000000000000000000000000000040
:1000C00010B5064C2378002B07D1054B002B02D02E
:1000D000044800E000BF0123237010BD3804002055
:1000E00000000000CC120000084B10B5002B03D01C
:1000F0000749084800E000BF07480368002B00D10B
:1001000010BD064B002BFBD09847F9E7000000001C
:100110003C040020CC120000340400200000000049
:10012000164B002B00D1144B9D46402292029A1A86
:10013000924600218B460F461348144A121A00F0CB
:100140000BFF0F4B002B00D098470E4B002B00D01D
:1001500098470020002104000D000D48002802D01F
:100160000C4800F0C9FF00F0D3FE2000290000F089
:1001700013F800F0BDFEC04600000800004000205B
:10018000000000000000000038040020540400209B
:10019000F91000000911000090B589B002AF00F01D
:1001A00047F8204A204B1100180000F067FA00F0D1
:1001B00049FB00F09FF800F0B1FA00237B613B009F
:1001C000180000F0C5FA3B001B683221180000F04F
:1001D000A3FD03003B613B005B683221180000F087
:1001E0009BFD0300FB60FA683B691100180000F0FA
:1001F0004FFB7A69FA239900100000F073FE0B1E82
:100200000BD13B001A683B005C683B009B680749C8
:1002100005480093230000F031FA7B6901337B61CC
:10022000CDE7C0462C120000A902000038120000E1
:1002300080B500AFA023DA05EC23DB000121D1500B
:10024000A023DB05124A002199501249A123DB00AB
:1002500001225242CA500F49A223DB00012252421E
:10026000CA500C4A0C4B1821D1500A4A0B4B192189
:10027000D150084A0A4B0B49D150064AA023DB0053
:100280000421D150034B01221A60C046BD4680BDF7
:1002900064070000002000400C0500001405000069
:1002A000240500000050270080B582B000AF020096
:1002B000FB1D1A700D4B01229A600C49FB1D1B7827
:1002C0000B4A8B50C046094A8E235B00D358002B43
:1002D000F9D0064A8E235B000021D150034B012246
:1002E000DA60C046BD4602B080BDC0460020004076
:1002F0001C05000080B500AFA023DA05EF23DB006A
:100300001649D150A023DA05E023DB001349D15070
:10031000134A8E235B000021D150114A84235B00D5
:100320000021D1500E4A92235B000021D1500C4A8B
:10033000A123DB000021D150094A0A4B1E21D150D4
:100340000749094ACC235B048B50054AA023DB00F4
:100350000521D150C046BD4680BDC0460C060000F8
:10036000003000400C0500002405000080B586B078
:1003700000AFBA607B600F23FB18021C1A700E23BB
:10038000FB180A1C1A703D490F23FB181A78B12379
:10039000DB00CA50394B01229A60384A8E235B0039
:1003A0000021D15035490E23FB181B78344A8B505D
:1003B000C046324A8E235B00D358002BF9D02F4A17
:1003C0008E235B000021D15000237B6103E0C046F7
:1003D0007B6901337B617B69092BF8DD274A802328
:1003E0009B000121D150254A84235B000021D1507C
:1003F000224B01221A6000233B611AE0C0461F4ACB
:1004000084235B00D358002BF9D01C4A84235B0063
:100410000021D1503B697A68D3181849A322D20031
:100420008A58D2B21A70154B01221A623B69013305
:100430003B61BB685A1E3B699A42DFDC0F4A80234E
:100440009B000221D150C0460C4A84235B00D35844
:10045000002BF9D0BB68013B7A68D3180749A32267
:10046000D2008A58D2B21A70044A80239B0000211D
:10047000D150C046BD4606B080BDC04600300040E9
:100480001C05000080B586B000AFBA607B600F230A
:10049000FB18021C1A700E23FB180A1C1A70204944
:1004A0000F23FB181A78B123DB00CA501C4B012222
:1004B0009A601B4A8E235B000021D15018490E23FD
:1004C000FB181B78174A8B50C046154A8E235B00D9
:1004D000D358002BF9D000237B6116E0104A8E23FD
:1004E0005B000021D1500E497B697A68D3181B78D4
:1004F0001A000C4BCA50C046094A8E235B00D358E1
:10050000002BF9D07B6901337B617A69BB689A4221
:10051000E4DB034B00225A61C046BD4606B080BDF5
:10052000003000401C05000080B586B000AF786048
:1005300039603B68002B03D17B683020984755E039
:1005400000237B6100233B610023FB603B68002BA1
:100550001FDA0123FB603B685B423B6019E03A69AC
:1005600013009B009B185B003B613B680A2118004D
:1005700000F0B8FC0B001A003B699B183B613B681C
:100580000A21180000F0C8FB03003B607B690133BF
:100590007B613B68002BE2D1FB68002B19D07B68A4
:1005A0002D20984715E03B690A21180000F09AFCBD
:1005B0000B00DBB23033DAB27B68100098473B693E
:1005C0000A21180000F0A8FB03003B617B69013B96
:1005D0007B613B69002BE6D105E07B6830209847C2
:1005E0007B69013B7B617B69002BF6D1BD4606B080
:1005F00080BDC04680B584B000AF78600023FB604A
:100600000EE0FA6813009B009B185B00FB607B68A0
:100610001B78303BFA68D318FB607B6801337B6042
:100620007B681B78642BECD1FB681800BD4604B0D6
:1006300080BDC04680B584B000AF78607B68002B79
:1006400001D1012316E00023FB607B68002B0DDA4B
:10065000FB680133FB6009E0FB680133FB607B68EA
:100660000A21180000F058FB03007B607B68002B18
:10067000F2D1FB681800BD4604B080BD0EB480B551
:1006800089B000AF78603023FB18FB60FB6ABB6168
:1006900039E0BB691B78252B05D0BB691A787B68CC
:1006A000100098472CE0FB681A1DFA601B687B61FC
:1006B000BB690133BB61BB691800FFF79BFF0300F7
:1006C0003B617B691800FFF7B5FF0300FB6102E0A7
:1006D000BB690133BB61BB691B78642BF8D105E0B2
:1006E0007B6820209847FB690133FB61FA693B690D
:1006F0009A42F5DB7A697B6811001800FFF714FF56
:10070000BB690133BB61BB691B78002BC1D1C046FB
:10071000BD4609B080BC08BC03B0184780B582B0A4
:1007200000AFFB1D57221A70FB1D0122202119204A
:10073000FFF7A8FEFB1D08221A70FB1D01222321D2
:100740001920FFF79FFEC046BD4602B080BDC046DF
:1007500080B586B000AF78600C23FB180622A82174
:100760001920FFF703FE0C23FB185B781B020C22F9
:10077000BA18127813431A111623FB181A8016237D
:10078000FB181B881A0080231B01134007D0162377
:10079000FB181622BA18128829490A431A800C231A
:1007A000FB18DB781B020C22BA18927813431A113B
:1007B0001423FB181A801423FB181B881A008023AB
:1007C0001B01134007D01423FB181422BA181288F7
:1007D0001B490A431A800C23FB185B791B020C226D
:1007E000BA18127913431A111223FB181A80122314
:1007F000FB181B881A0080231B01134007D012230B
:10080000FB181222BA1812880D490A431A801623BF
:10081000FB1800229A5E7B681A607B6804331422FE
:10082000BA180021525E1A607B6808331222BA1887
:100830000021525E1A60C046BD4606B080BDC0466B
:1008400000F0FFFF80B582B000AF04237B6015E0AD
:10085000A023DA0501217B6899400B001900A3232E
:10086000DB00D150A023DB0501217A6891400A000A
:100870001100064A99507B6801337B607B680F2B1F
:10088000E6DDC046BD4602B080BDC0460C05000096
:1008900080B586B000AF7860396000F02FF808238B
:1008A000FB187A681A600823FB183A685A60082314
:1008B000FB18180000F038F80823FB181B687B6150
:1008C0000823FB185B683B61A023DB0501217A69E3
:1008D00091400A001100084A9950A023DA0501212D
:1008E0003B6999400B001900A123DB00D150C046A1
:1008F000BD4606B080BDC0460C05000080B500AF07
:10090000A023DB050649E02212025A50A023DA0593
:10091000A123DB000349D150C046BD4680BDC0467F
:100920000C050000F01F000080B586B000AF7860B5
:100930007B681B687B617B685B683B617B69022B22
:1009400002DD02237B6105E07B69023302DA0223C8
:100950005B427B613B69022B02DD02233B6105E0C8
:100960003B69023302DA02235B423B613B6902339B
:10097000042B00D9BEE09A00644BD3181B689F4635
:100980007B690233042B00D9ABE09A00604BD3188B
:100990001B689F460623FB600F23BB6013E00A23FE
:1009A000FB600E23BB600EE00423FB600F23BB60E3
:1009B00009E00923FB600E23BB6004E00523FB6014
:1009C0000F23BB60C0468CE07B690233042B00D947
:1009D00089E09A004F4BD3181B689F460B23FB609E
:1009E0000D23BB6013E00A23FB600D23BB600EE008
:1009F0000923FB600D23BB6009E00823FB600D2386
:100A0000BB6004E00723FB600D23BB60C0466AE0C7
:100A10007B690233042B68D89A003F4BD3181B68BC
:100A20009F460523FB600E23BB6013E00C23FB6095
:100A30000D23BB600EE00623FB600E23BB6009E0C4
:100A40000C23FB600F23BB6004E00423FB600E2338
:100A5000BB60C04649E07B690233042B47D89A004B
:100A60002E4BD3181B689F460723FB600F23BB60E8
:100A700013E00823FB600F23BB600EE00923FB603B
:100A80000F23BB6009E00A23FB600F23BB6004E077
:100A90000B23FB600F23BB60C04628E07B69023359
:100AA000042B26D89A001E4BD3181B689F4604239C
:100AB000FB600D23BB6013E00723FB600E23BB60CC
:100AC0000EE00523FB600D23BB6009E00823FB60FB
:100AD0000E23BB6004E00623FB600D23BB60C04611
:100AE00007E0C04606E0C04604E0C04602E0C0465B
:100AF00000E0C0467B68FA681A607B680433BA6815
:100B00001A60C046BD4606B080BDC0465012000007
:100B100064120000781200008C120000A012000085
:100B2000B412000080B500AF00F036F8031E06D006
:100B3000134B144A1A60144B802212021A6000F000
:100B40006BF8031E05D08023DA05C123DB000121E9
:100B5000D15000F087F8031E0ED00C4B1B68012B00
:100B600007D00A4B0A4A1A60C046084B1B68012B83
:100B7000FBD1084BC0221A60C046BD4680BDC046AE
:100B800004050040DFFF07C0186C004000EC064081
:100B90007593000014EC064080B500AF1A4B1B683B
:100BA000FF221340012B2AD1184B1B680F22134040
:100BB00025D1174B1B68F022134006D1154B1B683B
:100BC000F022134001D101231AE0114B1B68F022DF
:100BD0001340102B06D10F4B1B68F022134001D19C
:100BE00001230DE00A4B1B68F0221340302B06D185
:100BF000084B1B68F022134001D1012300E00023C1
:100C00001800BD4680BDC046E00F00F0E40F00F0C4
:100C1000E80F00F0EC0F00F080B500AF0D4B1B6843
:100C2000FF221340012B11D10B4B1B680F221340E5
:100C30000CD10A4B1B68F0221340402B06D1084B05
:100C40001B68F022134001D1012300E000231800AB
:100C5000BD4680BDE00F00F0E40F00F0E80F00F0AB
:100C6000EC0F00F080B500AF144B1B68FF2213405F
:100C7000012B1ED1124B1B680F22134019D1114BAF
:100C80001B68F0221340A02B06D10F4B1B68F022EB
:100C9000134001D101230DE00A4B1B68F0221340E1
:100CA000D02B06D1084B1B68F022134001D1012341
:100CB00000E000231800BD4680BDC046E00F00F0F4
:100CC000E40F00F0E80F00F0EC0F00F003210A48F9
:100CD00002680A430260094802680A430260084940
:100CE000084A094B9B1A03DD043BC858D050FBDC73
:100CF000FFF718FFFFF714FA2405004054050040E1
:100D0000D81200000000002038040020FEE7FEE7B3
:100D1000FEE7FEE7FEE7FEE703460B437FD4002233
:100D200043088B4274D303098B425FD3030A8B427F
:100D300044D3030B8B4228D3030C8B420DD3FF22E9
:100D4000090212BA030C8B4202D31212090265D0B7
:100D5000030B8B4219D300E0090AC30B8B4201D36A
:100D6000CB03C01A5241830B8B4201D38B03C01AB1
:100D70005241430B8B4201D34B03C01A5241030B28
:100D80008B4201D30B03C01A5241C30A8B4201D3D9
:100D9000CB02C01A5241830A8B4201D38B02C01A84
:100DA0005241430A8B4201D34B02C01A5241030AFB
:100DB0008B4201D30B02C01A5241CDD2C3098B42E0
:100DC00001D3CB01C01A524183098B4201D38B015D
:100DD000C01A524143098B4201D34B01C01A524100
:100DE00003098B4201D30B01C01A5241C3088B4245
:100DF00001D3CB00C01A524183088B4201D38B0030
:100E0000C01A524143088B4201D34B00C01A5241D1
:100E1000411A00D201465241104670475DE0CA0FA8
:100E200000D04942031000D34042534000229C4668
:100E300003098B422DD3030A8B4212D3FC22890172
:100E400012BA030A8B420CD3890192118B4208D348
:100E5000890192118B4204D389013AD0921100E0AA
:100E60008909C3098B4201D3CB01C01A52418309BE
:100E70008B4201D38B01C01A524143098B4201D3EB
:100E80004B01C01A524103098B4201D30B01C01A16
:100E90005241C3088B4201D3CB00C01A5241830890
:100EA0008B4201D38B00C01A5241D9D243088B42E6
:100EB00001D34B00C01A5241411A00D20146634689
:100EC00052415B10104601D34042002B00D54942ED
:100ED000704763465B1000D3404201B5002000F02C
:100EE00005F802BD0029F8D016E770477047C046E4
:100EF00010B50021040000F081F8044B1868C36BA2
:100F0000002B00D09847200000F082F9C8120000A2
:100F100070B50D4E0D4D0024AD1BAD1005D0A300D6
:100F2000F35801349847A542F9D100F073F9084EFF
:100F3000084D0024AD1BAD1005D0A300F3580134BB
:100F40009847A542F9D170BD28040020280400204C
:100F5000280400203004002070B583073FD0541EC1
:100F6000002A3BD0CEB20300032503E0621E002C12
:100F700034D0140001335A1E16702B42F6D1032CC4
:100F800024D9FF250D402A0215432A0415430F2CAE
:100F900011D92600103E3609013636011A009B1978
:100FA000156055609560D56010329342F8D10F22DC
:100FB0001440032C0AD9261FB6080136B6001A00C1
:100FC0009B1920C29342FCD103221440002C05D06F
:100FD000C9B21C19197001339C42FBD170BD1400B9
:100FE0000300CCE7034B10B5002B02D0024800F001
:100FF00083F810BD0000000009110000F0B55F4645
:1010000056464D464446F0B40F00394B85B01B6838
:10101000019002934933FF330393A422029B5200B1
:101020009E58002E4ED0039B9946C4235B009846E1
:1010300004339A467468B044A5007519B244013C63
:1010400008D52DE06B1DFF331B689F4204D0043D83
:10105000013C25D3002FF5D173686A68013BA34298
:1010600039D000236B60002AF1D0736841469B465B
:101070000123A340096819422BD05146096819423F
:101080002BD12B00843319680198904773685B4516
:10109000C3D14B461B68B342BFD1043D013CD9D2FA
:1010A000144B002B0ED07368002B1BD13368002B20
:1010B0001CD04A463000136000E000BF4B461E685B
:1010C000002EB2D105B03CBC90469946A246AB4634
:1010D000F0BD9047DAE77460C5E72B0084331868E9
:1010E0009047D3E73368B1461E00E9E70023FAE7EB
:1010F000C81200000000000010B50100002300220B
:10110000002000F01BF810BD70B5094B094CE41A23
:10111000A41009D0084AA518AD00ED182B68013CB1
:101120009847043D002CF9D100F07AF870BDC04614
:101130003004002034040020FFFFFF3FF8B5444690
:101140005F4656464D469B462F4BF0B41C68A42381
:101150005B000500E0580E00904600284BD0436825
:101160001F2B0DDC5C1C002D21D102339B00446041
:101170001E5000203CBC90469946A246AB46F8BDA6
:10118000224B002B3CD0C820400000E000BF0028CC
:1011900036D0A42200235200A15843600160A05021
:1011A00040328350043283500124002DDDD09A0058
:1011B00091468144424688214F467A50C4225200CB
:1011C0009046804442468739994012688A460A43CD
:1011D0009446424661461160842249465F46520069
:1011E0008F50022DC1D1020055468D32FF32116859
:1011F0000D431560B9E720004D30FF30E050AEE7F9
:1012000001204042B6E7C046C812000000000000BE
:10121000FEE7C046F8B5C046F8BC08BC9E4670471D
:10122000F8B5C046F8BC08BC9E467047537461725E
:1012300074696E670A0D0000583A202536642059FB
:101240003A20253664205A3A202536640A0D0000DB
:1012500080090000C8090000100A0000560A0000BA
:101260009C0A0000940900009E090000A8090000E3
:10127000B2090000BC090000DC090000E60900001A
:10128000F0090000FA090000040A0000220A000028
:101290002C0A0000360A0000400A00004A0A00003A
:1012A000680A0000720A00007C0A0000860A00003A
:1012B000900A0000AE0A0000B80A0000C20A00004E
:1012C000CC0A0000D60A0000000000200000000048
:0812D00050EEFF7F0100000059
:1012D80000000000EC02002054030020BC030020A2
:1012E80000000000000000000000000000000000F6
:1012F80000000000000000000000000000000000E6
:1013080000000000000000000000000000000000D5
:1013180000000000000000000000000000000000C5
:1013280000000000000000000000000000000000B5
:1013380000000000000000000000000000000000A5
:101348000000000000000000000000000000000095
:101358000000000000000000000000000000000085
:101368000000000000000000000000000000000075
:101378000000000000000000010000000000000064
:101388000E33CDAB34126DE6ECDE05000B00000029
:101398000000000000000000000000000000000045
:1013A8000000000000000000000000000000000035
:1013B8000000000000000000000000000000000025
:1013C8000000000000000000000000000000000015
:1016F8000000000000000000E50F0000E900000005
:08170800C10000000000000018
:0400000300000CCD20
:00000001FF
